{
  "_format": "hh-sol-artifact-1",
  "contractName": "LotteryBox",
  "sourceName": "contracts/LotteryBox.sol",
  "abi": [
    {
      "inputs": [
        {
          "internalType": "address",
          "name": "_VRFv2Consumber",
          "type": "address"
        },
        {
          "internalType": "address",
          "name": "_ticketToken",
          "type": "address"
        },
        {
          "internalType": "address",
          "name": "_rewardsTicketToken",
          "type": "address"
        },
        {
          "internalType": "address",
          "name": "_treasury",
          "type": "address"
        }
      ],
      "stateMutability": "nonpayable",
      "type": "constructor"
    },
    {
      "inputs": [],
      "name": "ClaimRewardsFail",
      "type": "error"
    },
    {
      "inputs": [],
      "name": "NotWinner",
      "type": "error"
    },
    {
      "inputs": [
        {
          "internalType": "uint256",
          "name": "_pickNumber",
          "type": "uint256"
        }
      ],
      "name": "WrongNumbers",
      "type": "error"
    },
    {
      "anonymous": false,
      "inputs": [
        {
          "indexed": true,
          "internalType": "bytes32",
          "name": "role",
          "type": "bytes32"
        },
        {
          "indexed": true,
          "internalType": "bytes32",
          "name": "previousAdminRole",
          "type": "bytes32"
        },
        {
          "indexed": true,
          "internalType": "bytes32",
          "name": "newAdminRole",
          "type": "bytes32"
        }
      ],
      "name": "RoleAdminChanged",
      "type": "event"
    },
    {
      "anonymous": false,
      "inputs": [
        {
          "indexed": true,
          "internalType": "bytes32",
          "name": "role",
          "type": "bytes32"
        },
        {
          "indexed": true,
          "internalType": "address",
          "name": "account",
          "type": "address"
        },
        {
          "indexed": true,
          "internalType": "address",
          "name": "sender",
          "type": "address"
        }
      ],
      "name": "RoleGranted",
      "type": "event"
    },
    {
      "anonymous": false,
      "inputs": [
        {
          "indexed": true,
          "internalType": "bytes32",
          "name": "role",
          "type": "bytes32"
        },
        {
          "indexed": true,
          "internalType": "address",
          "name": "account",
          "type": "address"
        },
        {
          "indexed": true,
          "internalType": "address",
          "name": "sender",
          "type": "address"
        }
      ],
      "name": "RoleRevoked",
      "type": "event"
    },
    {
      "inputs": [],
      "name": "DEFAULT_ADMIN_ROLE",
      "outputs": [
        {
          "internalType": "bytes32",
          "name": "",
          "type": "bytes32"
        }
      ],
      "stateMutability": "view",
      "type": "function"
    },
    {
      "inputs": [
        {
          "internalType": "uint256",
          "name": "_round",
          "type": "uint256"
        }
      ],
      "name": "claim",
      "outputs": [],
      "stateMutability": "nonpayable",
      "type": "function"
    },
    {
      "inputs": [
        {
          "internalType": "uint256",
          "name": "_round",
          "type": "uint256"
        },
        {
          "internalType": "address",
          "name": "_user",
          "type": "address"
        },
        {
          "internalType": "uint256",
          "name": "_pickNumber",
          "type": "uint256"
        }
      ],
      "name": "getIsNotClaimed",
      "outputs": [
        {
          "internalType": "bool",
          "name": "",
          "type": "bool"
        }
      ],
      "stateMutability": "view",
      "type": "function"
    },
    {
      "inputs": [
        {
          "internalType": "uint256",
          "name": "_round",
          "type": "uint256"
        },
        {
          "internalType": "uint256",
          "name": "_pickNumber",
          "type": "uint256"
        }
      ],
      "name": "getJoinedList",
      "outputs": [
        {
          "internalType": "address[]",
          "name": "",
          "type": "address[]"
        }
      ],
      "stateMutability": "view",
      "type": "function"
    },
    {
      "inputs": [
        {
          "internalType": "bytes32",
          "name": "role",
          "type": "bytes32"
        }
      ],
      "name": "getRoleAdmin",
      "outputs": [
        {
          "internalType": "bytes32",
          "name": "",
          "type": "bytes32"
        }
      ],
      "stateMutability": "view",
      "type": "function"
    },
    {
      "inputs": [
        {
          "internalType": "uint256",
          "name": "_round",
          "type": "uint256"
        },
        {
          "internalType": "address",
          "name": "_user",
          "type": "address"
        }
      ],
      "name": "getUserSelectedNumbers",
      "outputs": [
        {
          "internalType": "uint256[]",
          "name": "",
          "type": "uint256[]"
        }
      ],
      "stateMutability": "view",
      "type": "function"
    },
    {
      "inputs": [
        {
          "internalType": "bytes32",
          "name": "role",
          "type": "bytes32"
        },
        {
          "internalType": "address",
          "name": "account",
          "type": "address"
        }
      ],
      "name": "grantRole",
      "outputs": [],
      "stateMutability": "nonpayable",
      "type": "function"
    },
    {
      "inputs": [
        {
          "internalType": "bytes32",
          "name": "role",
          "type": "bytes32"
        },
        {
          "internalType": "address",
          "name": "account",
          "type": "address"
        }
      ],
      "name": "hasRole",
      "outputs": [
        {
          "internalType": "bool",
          "name": "",
          "type": "bool"
        }
      ],
      "stateMutability": "view",
      "type": "function"
    },
    {
      "inputs": [
        {
          "internalType": "uint256",
          "name": "_pickNumber",
          "type": "uint256"
        }
      ],
      "name": "joinGameWithTickets",
      "outputs": [],
      "stateMutability": "nonpayable",
      "type": "function"
    },
    {
      "inputs": [
        {
          "internalType": "uint256",
          "name": "_pickNumber",
          "type": "uint256"
        }
      ],
      "name": "joinGameWithrewardsTickets",
      "outputs": [],
      "stateMutability": "nonpayable",
      "type": "function"
    },
    {
      "inputs": [],
      "name": "openResult",
      "outputs": [],
      "stateMutability": "nonpayable",
      "type": "function"
    },
    {
      "inputs": [
        {
          "internalType": "bytes32",
          "name": "role",
          "type": "bytes32"
        },
        {
          "internalType": "address",
          "name": "account",
          "type": "address"
        }
      ],
      "name": "renounceRole",
      "outputs": [],
      "stateMutability": "nonpayable",
      "type": "function"
    },
    {
      "inputs": [
        {
          "internalType": "bytes32",
          "name": "role",
          "type": "bytes32"
        },
        {
          "internalType": "address",
          "name": "account",
          "type": "address"
        }
      ],
      "name": "revokeRole",
      "outputs": [],
      "stateMutability": "nonpayable",
      "type": "function"
    },
    {
      "inputs": [],
      "name": "s_VRFv2Consumber",
      "outputs": [
        {
          "internalType": "contract IVRFv2Consumber",
          "name": "",
          "type": "address"
        }
      ],
      "stateMutability": "view",
      "type": "function"
    },
    {
      "inputs": [
        {
          "internalType": "uint256",
          "name": "",
          "type": "uint256"
        },
        {
          "internalType": "address",
          "name": "",
          "type": "address"
        },
        {
          "internalType": "uint256",
          "name": "",
          "type": "uint256"
        }
      ],
      "name": "s_isNotClaimed",
      "outputs": [
        {
          "internalType": "bool",
          "name": "",
          "type": "bool"
        }
      ],
      "stateMutability": "view",
      "type": "function"
    },
    {
      "inputs": [
        {
          "internalType": "uint256",
          "name": "",
          "type": "uint256"
        },
        {
          "internalType": "uint256",
          "name": "",
          "type": "uint256"
        },
        {
          "internalType": "uint256",
          "name": "",
          "type": "uint256"
        }
      ],
      "name": "s_joinedList",
      "outputs": [
        {
          "internalType": "address",
          "name": "",
          "type": "address"
        }
      ],
      "stateMutability": "view",
      "type": "function"
    },
    {
      "inputs": [],
      "name": "s_rewardsTicketToken",
      "outputs": [
        {
          "internalType": "contract IERC20",
          "name": "",
          "type": "address"
        }
      ],
      "stateMutability": "view",
      "type": "function"
    },
    {
      "inputs": [],
      "name": "s_rewardsTicketgameFee",
      "outputs": [
        {
          "internalType": "uint256",
          "name": "",
          "type": "uint256"
        }
      ],
      "stateMutability": "view",
      "type": "function"
    },
    {
      "inputs": [],
      "name": "s_round",
      "outputs": [
        {
          "internalType": "uint256",
          "name": "",
          "type": "uint256"
        }
      ],
      "stateMutability": "view",
      "type": "function"
    },
    {
      "inputs": [],
      "name": "s_ticketToken",
      "outputs": [
        {
          "internalType": "contract IERC20",
          "name": "",
          "type": "address"
        }
      ],
      "stateMutability": "view",
      "type": "function"
    },
    {
      "inputs": [],
      "name": "s_ticketgameFee",
      "outputs": [
        {
          "internalType": "uint256",
          "name": "",
          "type": "uint256"
        }
      ],
      "stateMutability": "view",
      "type": "function"
    },
    {
      "inputs": [],
      "name": "s_treasury",
      "outputs": [
        {
          "internalType": "contract ITreasury",
          "name": "",
          "type": "address"
        }
      ],
      "stateMutability": "view",
      "type": "function"
    },
    {
      "inputs": [
        {
          "internalType": "address",
          "name": "",
          "type": "address"
        }
      ],
      "name": "s_userRewards",
      "outputs": [
        {
          "internalType": "uint256",
          "name": "",
          "type": "uint256"
        }
      ],
      "stateMutability": "view",
      "type": "function"
    },
    {
      "inputs": [
        {
          "internalType": "uint256",
          "name": "",
          "type": "uint256"
        },
        {
          "internalType": "address",
          "name": "",
          "type": "address"
        },
        {
          "internalType": "uint256",
          "name": "",
          "type": "uint256"
        }
      ],
      "name": "s_userSelectedNumbers",
      "outputs": [
        {
          "internalType": "uint256",
          "name": "",
          "type": "uint256"
        }
      ],
      "stateMutability": "view",
      "type": "function"
    },
    {
      "inputs": [
        {
          "internalType": "uint256",
          "name": "",
          "type": "uint256"
        }
      ],
      "name": "s_winNumberList",
      "outputs": [
        {
          "internalType": "uint256",
          "name": "",
          "type": "uint256"
        }
      ],
      "stateMutability": "view",
      "type": "function"
    },
    {
      "inputs": [
        {
          "internalType": "uint256",
          "name": "",
          "type": "uint256"
        },
        {
          "internalType": "uint256",
          "name": "",
          "type": "uint256"
        }
      ],
      "name": "s_winnerSize",
      "outputs": [
        {
          "internalType": "uint256",
          "name": "",
          "type": "uint256"
        }
      ],
      "stateMutability": "view",
      "type": "function"
    },
    {
      "inputs": [
        {
          "internalType": "uint256",
          "name": "_gameFee",
          "type": "uint256"
        }
      ],
      "name": "setGameFeeWithTickets",
      "outputs": [],
      "stateMutability": "nonpayable",
      "type": "function"
    },
    {
      "inputs": [
        {
          "internalType": "uint256",
          "name": "_gameFee",
          "type": "uint256"
        }
      ],
      "name": "setGameFeeWithrewardsTickets",
      "outputs": [],
      "stateMutability": "nonpayable",
      "type": "function"
    },
    {
      "inputs": [
        {
          "internalType": "bytes4",
          "name": "interfaceId",
          "type": "bytes4"
        }
      ],
      "name": "supportsInterface",
      "outputs": [
        {
          "internalType": "bool",
          "name": "",
          "type": "bool"
        }
      ],
      "stateMutability": "view",
      "type": "function"
    }
  ],
  "bytecode": "0x610100604052600160085567016345785d8a0000600955670de0b6b3a7640000600a553480156200002f57600080fd5b50604051620016fe380380620016fe833981016040819052620000529162000199565b600160009081556001600160601b0319606086811b821660805285811b821660a05283811b821660e05284901b1660c0526200008f9033620000e4565b60408051808201909152600781526626a0a720a3a2a960c91b602090910152620000da7faf290d8680820aad922855f39b306097b20e28774d6c1ad35a20325630c3a02c33620000e4565b50505050620001f5565b620000f08282620000f4565b5050565b60008281526001602090815260408083206001600160a01b038516845290915290205460ff16620000f05760008281526001602081815260408084206001600160a01b0386168086529252808420805460ff19169093179092559051339285917f2f8788117e7eff1d82e926ec794901d17c78024a50270940304540a733656f0d9190a45050565b80516001600160a01b03811681146200019457600080fd5b919050565b60008060008060808587031215620001af578384fd5b620001ba856200017c565b9350620001ca602086016200017c565b9250620001da604086016200017c565b9150620001ea606086016200017c565b905092959194509250565b60805160601c60a05160601c60c05160601c60e05160601c6114a06200025e60003960008181610478015281816109220152610b140152600081816103b00152610dc901526000818161025f015261056501526000818161049f0152610a4801526114a06000f3fe608060405234801561001057600080fd5b50600436106101cf5760003560e01c806356e94ad011610104578063a217fddf116100a2578063b0eacef011610071578063b0eacef014610473578063c11388fc1461049a578063d547741f146104c1578063da3199a1146104d457600080fd5b8063a217fddf146103f8578063a753ca9b14610400578063aaeaab2c14610413578063ac7908af1461045357600080fd5b80636c5a2c32116100de5780636c5a2c32146103a25780636d7b4c80146103ab57806391d14854146103d25780639dc7bf53146103e557600080fd5b806356e94ad01461034f5780635e78843c1461036f5780635ee3fe611461038257600080fd5b80632c7430bb11610171578063379607f51161014b578063379607f514610318578063443c64351461032b57806353f1906e1461033e5780635552dcb81461034757600080fd5b80632c7430bb146102d25780632f2ff15d146102f257806336568abe1461030557600080fd5b806315faab72116101ad57806315faab72146102265780631a31e9231461025a5780631bf8239814610299578063248a9ca3146102ae57600080fd5b806301ffc9a7146101d457806303e39529146101fc57806314a5936c1461021d575b600080fd5b6101e76101e23660046111a5565b6104e7565b60405190151581526020015b60405180910390f35b61020f61020a36600461122b565b61051e565b6040519081526020016101f3565b61020f60095481565b6101e76102343660046111f7565b600360209081526000938452604080852082529284528284209052825290205460ff1681565b6102817f000000000000000000000000000000000000000000000000000000000000000081565b6040516001600160a01b0390911681526020016101f3565b6102ac6102a7366004611162565b610543565b005b61020f6102bc366004611162565b6000908152600160208190526040909120015490565b61020f6102e0366004611148565b60066020526000908152604090205481565b6102ac61030036600461117a565b61069b565b6102ac61031336600461117a565b6106c6565b6102ac610326366004611162565b610744565b61020f6103393660046111f7565b6109a8565b61020f60085481565b6102ac6109e6565b61020f61035d366004611162565b60056020526000908152604090205481565b6102ac61037d366004611162565b610b8b565b61039561039036600461122b565b610bda565b6040516101f391906112ec565b61020f600a5481565b6102817f000000000000000000000000000000000000000000000000000000000000000081565b6101e76103e036600461117a565b610c4f565b6102ac6103f3366004611162565b610c7a565b61020f600081565b61028161040e36600461124c565b610cc9565b6101e76104213660046111f7565b60009283526003602090815260408085206001600160a01b039490941685529281528284209184525290205460ff1690565b6104666104613660046111e5565b610d0e565b6040516101f39190611339565b6102817f000000000000000000000000000000000000000000000000000000000000000081565b6102817f000000000000000000000000000000000000000000000000000000000000000081565b6102ac6104cf36600461117a565b610d81565b6102ac6104e2366004611162565b610da7565b60006001600160e01b03198216637965db0b60e01b148061051857506301ffc9a760e01b6001600160e01b03198316145b92915050565b6007602052816000526040600020816003811061053a57600080fd5b01549150829050565b60095460405163079cc67960e41b8152336004820181905260248201929092527f00000000000000000000000000000000000000000000000000000000000000006001600160a01b0316906379cc6790906044015b600060405180830381600087803b1580156105b257600080fd5b505af11580156105c6573d6000803e3d6000fd5b50505050620186a082111580156105e05750620f423f8211155b1561060657604051630fb23a4560e41b8152600481018390526024015b60405180910390fd5b600854600081815260046020908152604080832086845282528083208054600181810183559185528385200180546001600160a01b039097166001600160a01b031990971687179055848452600283528184208685528352818420805480830182559085528385200187905593835260038252808320948352938152838220948252939093529120805460ff19169091179055565b600082815260016020819052604090912001546106b781610e00565b6106c18383610e0d565b505050565b6001600160a01b03811633146107365760405162461bcd60e51b815260206004820152602f60248201527f416363657373436f6e74726f6c3a2063616e206f6e6c792072656e6f756e636560448201526e103937b632b9903337b91039b2b63360891b60648201526084016105fd565b6107408282610e78565b5050565b600260005414156107975760405162461bcd60e51b815260206004820152601f60248201527f5265656e7472616e637947756172643a207265656e7472616e742063616c6c0060448201526064016105fd565b6002600090815581815260056020908152604080832054600483528184208185529092528220339260039291905b815481101561089f57846001600160a01b03168282815481106107f857634e487b7160e01b600052603260045260246000fd5b6000918252602090912001546001600160a01b031614156108185761089f565b8154610826906001906113db565b811480156108715750846001600160a01b031682828154811061085957634e487b7160e01b600052603260045260246000fd5b6000918252602090912001546001600160a01b031614155b1561088f576040516330c6392160e11b815260040160405180910390fd5b61089881611439565b90506107c5565b506000858152602084815260408083206001600160a01b0388168452825280832085845290915290205460ff1615610983576000858152602084815260408083206001600160a01b0388811680865291845282852087865290935292819020805460ff19169055516309a99b4f60e41b81526004810192909252602482018790527f00000000000000000000000000000000000000000000000000000000000000001690639a99b4f090604401600060405180830381600087803b15801561096657600080fd5b505af115801561097a573d6000803e3d6000fd5b5050505061099c565b604051631b7625d360e11b815260040160405180910390fd5b50506001600055505050565b600260205282600052604060002060205281600052604060002081815481106109d057600080fd5b9060005260206000200160009250925050505481565b60408051808201909152600781526626a0a720a3a2a960c91b6020909101527faf290d8680820aad922855f39b306097b20e28774d6c1ad35a20325630c3a02c610a2f81610e00565b604051631edd5ff960e31b8152600060048201819052907f00000000000000000000000000000000000000000000000000000000000000006001600160a01b03169063f6eaffc89060240160206040518083038186803b158015610a9257600080fd5b505afa158015610aa6573d6000803e3d6000fd5b505050506040513d601f19601f82011682018060405250810190610aca91906111cd565b60085460008181526005602090815260408083208590556004808352818420868552909252918290205491516302c0033f60e21b81529081018390526024810182905292935090917f00000000000000000000000000000000000000000000000000000000000000006001600160a01b031690630b000cfc90604401600060405180830381600087803b158015610b6057600080fd5b505af1158015610b74573d6000803e3d6000fd5b5050505081610b8290611439565b60085550505050565b60408051808201909152600781526626a0a720a3a2a960c91b6020909101527faf290d8680820aad922855f39b306097b20e28774d6c1ad35a20325630c3a02c610bd481610e00565b50600a55565b6000828152600460209081526040808320848452825291829020805483518184028101840190945280845260609392830182828015610c4257602002820191906000526020600020905b81546001600160a01b03168152600190910190602001808311610c24575b5050505050905092915050565b60009182526001602090815260408084206001600160a01b0393909316845291905290205460ff1690565b60408051808201909152600781526626a0a720a3a2a960c91b6020909101527faf290d8680820aad922855f39b306097b20e28774d6c1ad35a20325630c3a02c610cc381610e00565b50600955565b60046020528260005260406000206020528160005260406000208181548110610cf157600080fd5b6000918252602090912001546001600160a01b0316925083915050565b60008281526002602090815260408083206001600160a01b0385168452825291829020805483518184028101840190945280845260609392830182828015610c4257602002820191906000526020600020905b815481526020019060010190808311610d61575050505050905092915050565b60008281526001602081905260409091200154610d9d81610e00565b6106c18383610e78565b600a5460405163079cc67960e41b8152336004820181905260248201929092527f00000000000000000000000000000000000000000000000000000000000000006001600160a01b0316906379cc679090604401610598565b610e0a8133610edf565b50565b610e178282610c4f565b6107405760008281526001602081815260408084206001600160a01b0386168086529252808420805460ff19169093179092559051339285917f2f8788117e7eff1d82e926ec794901d17c78024a50270940304540a733656f0d9190a45050565b610e828282610c4f565b156107405760008281526001602090815260408083206001600160a01b0385168085529252808320805460ff1916905551339285917ff6391f5c32d9c69d2a47ea670b442974b53935d1edc7fd64eb21e047a839171b9190a45050565b610ee98282610c4f565b61074057610f01816001600160a01b03166014610f43565b610f0c836020610f43565b604051602001610f1d929190611277565b60408051601f198184030181529082905262461bcd60e51b82526105fd91600401611371565b60606000610f528360026113bc565b610f5d9060026113a4565b67ffffffffffffffff811115610f8357634e487b7160e01b600052604160045260246000fd5b6040519080825280601f01601f191660200182016040528015610fad576020820181803683370190505b509050600360fc1b81600081518110610fd657634e487b7160e01b600052603260045260246000fd5b60200101906001600160f81b031916908160001a905350600f60fb1b8160018151811061101357634e487b7160e01b600052603260045260246000fd5b60200101906001600160f81b031916908160001a90535060006110378460026113bc565b6110429060016113a4565b90505b60018111156110d6576f181899199a1a9b1b9c1cb0b131b232b360811b85600f166010811061108457634e487b7160e01b600052603260045260246000fd5b1a60f81b8282815181106110a857634e487b7160e01b600052603260045260246000fd5b60200101906001600160f81b031916908160001a90535060049490941c936110cf81611422565b9050611045565b5083156111255760405162461bcd60e51b815260206004820181905260248201527f537472696e67733a20686578206c656e67746820696e73756666696369656e7460448201526064016105fd565b9392505050565b80356001600160a01b038116811461114357600080fd5b919050565b600060208284031215611159578081fd5b6111258261112c565b600060208284031215611173578081fd5b5035919050565b6000806040838503121561118c578081fd5b8235915061119c6020840161112c565b90509250929050565b6000602082840312156111b6578081fd5b81356001600160e01b031981168114611125578182fd5b6000602082840312156111de578081fd5b5051919050565b6000806040838503121561118c578182fd5b60008060006060848603121561120b578081fd5b8335925061121b6020850161112c565b9150604084013590509250925092565b6000806040838503121561123d578182fd5b50508035926020909101359150565b600080600060608486031215611260578283fd5b505081359360208301359350604090920135919050565b7f416363657373436f6e74726f6c3a206163636f756e74200000000000000000008152600083516112af8160178501602088016113f2565b7001034b99036b4b9b9b4b733903937b6329607d1b60179184019182015283516112e08160288401602088016113f2565b01602801949350505050565b6020808252825182820181905260009190848201906040850190845b8181101561132d5783516001600160a01b031683529284019291840191600101611308565b50909695505050505050565b6020808252825182820181905260009190848201906040850190845b8181101561132d57835183529284019291840191600101611355565b60208152600082518060208401526113908160408501602087016113f2565b601f01601f19169190910160400192915050565b600082198211156113b7576113b7611454565b500190565b60008160001904831182151516156113d6576113d6611454565b500290565b6000828210156113ed576113ed611454565b500390565b60005b8381101561140d5781810151838201526020016113f5565b8381111561141c576000848401525b50505050565b60008161143157611431611454565b506000190190565b600060001982141561144d5761144d611454565b5060010190565b634e487b7160e01b600052601160045260246000fdfea26469706673582212202bb36f51ec40d2245d0531de8c4075b762fd95e53c37c8586b7a52a421ca1e4364736f6c63430008040033",
  "linkReferences": {},
  "deployedLinkReferences": {}
}