{
  "_format": "hh-sol-artifact-1",
  "contractName": "RewardTicketToken",
  "sourceName": "contracts/RewardTicketToken.sol",
  "abi": [
    {
      "inputs": [
        {
          "internalType": "string",
          "name": "_name",
          "type": "string"
        },
        {
          "internalType": "string",
          "name": "_symbol",
          "type": "string"
        }
      ],
      "stateMutability": "nonpayable",
      "type": "constructor"
    },
    {
      "anonymous": false,
      "inputs": [
        {
          "indexed": true,
          "internalType": "address",
          "name": "owner",
          "type": "address"
        },
        {
          "indexed": true,
          "internalType": "address",
          "name": "spender",
          "type": "address"
        },
        {
          "indexed": false,
          "internalType": "uint256",
          "name": "value",
          "type": "uint256"
        }
      ],
      "name": "Approval",
      "type": "event"
    },
    {
      "anonymous": false,
      "inputs": [
        {
          "indexed": true,
          "internalType": "bytes32",
          "name": "role",
          "type": "bytes32"
        },
        {
          "indexed": true,
          "internalType": "bytes32",
          "name": "previousAdminRole",
          "type": "bytes32"
        },
        {
          "indexed": true,
          "internalType": "bytes32",
          "name": "newAdminRole",
          "type": "bytes32"
        }
      ],
      "name": "RoleAdminChanged",
      "type": "event"
    },
    {
      "anonymous": false,
      "inputs": [
        {
          "indexed": true,
          "internalType": "bytes32",
          "name": "role",
          "type": "bytes32"
        },
        {
          "indexed": true,
          "internalType": "address",
          "name": "account",
          "type": "address"
        },
        {
          "indexed": true,
          "internalType": "address",
          "name": "sender",
          "type": "address"
        }
      ],
      "name": "RoleGranted",
      "type": "event"
    },
    {
      "anonymous": false,
      "inputs": [
        {
          "indexed": true,
          "internalType": "bytes32",
          "name": "role",
          "type": "bytes32"
        },
        {
          "indexed": true,
          "internalType": "address",
          "name": "account",
          "type": "address"
        },
        {
          "indexed": true,
          "internalType": "address",
          "name": "sender",
          "type": "address"
        }
      ],
      "name": "RoleRevoked",
      "type": "event"
    },
    {
      "anonymous": false,
      "inputs": [
        {
          "indexed": true,
          "internalType": "address",
          "name": "from",
          "type": "address"
        },
        {
          "indexed": true,
          "internalType": "address",
          "name": "to",
          "type": "address"
        },
        {
          "indexed": false,
          "internalType": "uint256",
          "name": "value",
          "type": "uint256"
        }
      ],
      "name": "Transfer",
      "type": "event"
    },
    {
      "inputs": [],
      "name": "DEFAULT_ADMIN_ROLE",
      "outputs": [
        {
          "internalType": "bytes32",
          "name": "",
          "type": "bytes32"
        }
      ],
      "stateMutability": "view",
      "type": "function"
    },
    {
      "inputs": [
        {
          "internalType": "address",
          "name": "owner",
          "type": "address"
        },
        {
          "internalType": "address",
          "name": "spender",
          "type": "address"
        }
      ],
      "name": "allowance",
      "outputs": [
        {
          "internalType": "uint256",
          "name": "",
          "type": "uint256"
        }
      ],
      "stateMutability": "view",
      "type": "function"
    },
    {
      "inputs": [
        {
          "internalType": "address",
          "name": "spender",
          "type": "address"
        },
        {
          "internalType": "uint256",
          "name": "amount",
          "type": "uint256"
        }
      ],
      "name": "approve",
      "outputs": [
        {
          "internalType": "bool",
          "name": "",
          "type": "bool"
        }
      ],
      "stateMutability": "nonpayable",
      "type": "function"
    },
    {
      "inputs": [
        {
          "internalType": "address",
          "name": "account",
          "type": "address"
        }
      ],
      "name": "balanceOf",
      "outputs": [
        {
          "internalType": "uint256",
          "name": "",
          "type": "uint256"
        }
      ],
      "stateMutability": "view",
      "type": "function"
    },
    {
      "inputs": [
        {
          "internalType": "uint256",
          "name": "amount",
          "type": "uint256"
        }
      ],
      "name": "burn",
      "outputs": [],
      "stateMutability": "nonpayable",
      "type": "function"
    },
    {
      "inputs": [
        {
          "internalType": "address",
          "name": "account",
          "type": "address"
        },
        {
          "internalType": "uint256",
          "name": "amount",
          "type": "uint256"
        }
      ],
      "name": "burnFrom",
      "outputs": [],
      "stateMutability": "nonpayable",
      "type": "function"
    },
    {
      "inputs": [],
      "name": "decimals",
      "outputs": [
        {
          "internalType": "uint8",
          "name": "",
          "type": "uint8"
        }
      ],
      "stateMutability": "view",
      "type": "function"
    },
    {
      "inputs": [
        {
          "internalType": "address",
          "name": "spender",
          "type": "address"
        },
        {
          "internalType": "uint256",
          "name": "subtractedValue",
          "type": "uint256"
        }
      ],
      "name": "decreaseAllowance",
      "outputs": [
        {
          "internalType": "bool",
          "name": "",
          "type": "bool"
        }
      ],
      "stateMutability": "nonpayable",
      "type": "function"
    },
    {
      "inputs": [
        {
          "internalType": "bytes32",
          "name": "role",
          "type": "bytes32"
        }
      ],
      "name": "getRoleAdmin",
      "outputs": [
        {
          "internalType": "bytes32",
          "name": "",
          "type": "bytes32"
        }
      ],
      "stateMutability": "view",
      "type": "function"
    },
    {
      "inputs": [
        {
          "internalType": "bytes32",
          "name": "role",
          "type": "bytes32"
        },
        {
          "internalType": "address",
          "name": "account",
          "type": "address"
        }
      ],
      "name": "grantRole",
      "outputs": [],
      "stateMutability": "nonpayable",
      "type": "function"
    },
    {
      "inputs": [
        {
          "internalType": "bytes32",
          "name": "role",
          "type": "bytes32"
        },
        {
          "internalType": "address",
          "name": "account",
          "type": "address"
        }
      ],
      "name": "hasRole",
      "outputs": [
        {
          "internalType": "bool",
          "name": "",
          "type": "bool"
        }
      ],
      "stateMutability": "view",
      "type": "function"
    },
    {
      "inputs": [
        {
          "internalType": "address",
          "name": "spender",
          "type": "address"
        },
        {
          "internalType": "uint256",
          "name": "addedValue",
          "type": "uint256"
        }
      ],
      "name": "increaseAllowance",
      "outputs": [
        {
          "internalType": "bool",
          "name": "",
          "type": "bool"
        }
      ],
      "stateMutability": "nonpayable",
      "type": "function"
    },
    {
      "inputs": [
        {
          "internalType": "address",
          "name": "_to",
          "type": "address"
        },
        {
          "internalType": "uint256",
          "name": "_amount",
          "type": "uint256"
        }
      ],
      "name": "mint",
      "outputs": [],
      "stateMutability": "nonpayable",
      "type": "function"
    },
    {
      "inputs": [],
      "name": "name",
      "outputs": [
        {
          "internalType": "string",
          "name": "",
          "type": "string"
        }
      ],
      "stateMutability": "view",
      "type": "function"
    },
    {
      "inputs": [
        {
          "internalType": "bytes32",
          "name": "role",
          "type": "bytes32"
        },
        {
          "internalType": "address",
          "name": "account",
          "type": "address"
        }
      ],
      "name": "renounceRole",
      "outputs": [],
      "stateMutability": "nonpayable",
      "type": "function"
    },
    {
      "inputs": [
        {
          "internalType": "bytes32",
          "name": "role",
          "type": "bytes32"
        },
        {
          "internalType": "address",
          "name": "account",
          "type": "address"
        }
      ],
      "name": "revokeRole",
      "outputs": [],
      "stateMutability": "nonpayable",
      "type": "function"
    },
    {
      "inputs": [
        {
          "internalType": "bytes4",
          "name": "interfaceId",
          "type": "bytes4"
        }
      ],
      "name": "supportsInterface",
      "outputs": [
        {
          "internalType": "bool",
          "name": "",
          "type": "bool"
        }
      ],
      "stateMutability": "view",
      "type": "function"
    },
    {
      "inputs": [],
      "name": "symbol",
      "outputs": [
        {
          "internalType": "string",
          "name": "",
          "type": "string"
        }
      ],
      "stateMutability": "view",
      "type": "function"
    },
    {
      "inputs": [],
      "name": "totalSupply",
      "outputs": [
        {
          "internalType": "uint256",
          "name": "",
          "type": "uint256"
        }
      ],
      "stateMutability": "view",
      "type": "function"
    },
    {
      "inputs": [
        {
          "internalType": "address",
          "name": "to",
          "type": "address"
        },
        {
          "internalType": "uint256",
          "name": "amount",
          "type": "uint256"
        }
      ],
      "name": "transfer",
      "outputs": [
        {
          "internalType": "bool",
          "name": "",
          "type": "bool"
        }
      ],
      "stateMutability": "nonpayable",
      "type": "function"
    },
    {
      "inputs": [
        {
          "internalType": "address",
          "name": "from",
          "type": "address"
        },
        {
          "internalType": "address",
          "name": "to",
          "type": "address"
        },
        {
          "internalType": "uint256",
          "name": "amount",
          "type": "uint256"
        }
      ],
      "name": "transferFrom",
      "outputs": [
        {
          "internalType": "bool",
          "name": "",
          "type": "bool"
        }
      ],
      "stateMutability": "nonpayable",
      "type": "function"
    }
  ],
  "bytecode": "0x60806040523480156200001157600080fd5b50604051620016d6380380620016d68339810160408190526200003491620003d1565b8151829082906200004d90600390602085019062000278565b5080516200006390600490602084019062000278565b506200007591506000905033620000dc565b60408051808201909152600781526626a0a720a3a2a960c91b602090910152620000c07faf290d8680820aad922855f39b306097b20e28774d6c1ad35a20325630c3a02c33620000dc565b620000d433678ac7230489e80000620000ec565b5050620004b0565b620000e88282620001d4565b5050565b6001600160a01b038216620001475760405162461bcd60e51b815260206004820152601f60248201527f45524332303a206d696e7420746f20746865207a65726f206164647265737300604482015260640160405180910390fd5b80600260008282546200015b919062000438565b90915550506001600160a01b038216600090815260208190526040812080548392906200018a90849062000438565b90915550506040518181526001600160a01b038316906000907fddf252ad1be2c89b69c2b068fc378daa952ba7f163c4a11628f55a4df523b3ef9060200160405180910390a35050565b60008281526005602090815260408083206001600160a01b038516845290915290205460ff16620000e85760008281526005602090815260408083206001600160a01b03851684529091529020805460ff19166001179055620002343390565b6001600160a01b0316816001600160a01b0316837f2f8788117e7eff1d82e926ec794901d17c78024a50270940304540a733656f0d60405160405180910390a45050565b82805462000286906200045d565b90600052602060002090601f016020900481019282620002aa5760008555620002f5565b82601f10620002c557805160ff1916838001178555620002f5565b82800160010185558215620002f5579182015b82811115620002f5578251825591602001919060010190620002d8565b506200030392915062000307565b5090565b5b8082111562000303576000815560010162000308565b600082601f8301126200032f578081fd5b81516001600160401b03808211156200034c576200034c6200049a565b604051601f8301601f19908116603f011681019082821181831017156200037757620003776200049a565b8160405283815260209250868385880101111562000393578485fd5b8491505b83821015620003b6578582018301518183018401529082019062000397565b83821115620003c757848385830101525b9695505050505050565b60008060408385031215620003e4578182fd5b82516001600160401b0380821115620003fb578384fd5b62000409868387016200031e565b935060208501519150808211156200041f578283fd5b506200042e858286016200031e565b9150509250929050565b600082198211156200045857634e487b7160e01b81526011600452602481fd5b500190565b600181811c908216806200047257607f821691505b602082108114156200049457634e487b7160e01b600052602260045260246000fd5b50919050565b634e487b7160e01b600052604160045260246000fd5b61121680620004c06000396000f3fe608060405234801561001057600080fd5b50600436106101375760003560e01c806340c10f19116100b857806395d89b411161007c57806395d89b4114610293578063a217fddf1461029b578063a457c2d7146102a3578063a9059cbb146102b6578063d547741f146102c9578063dd62ed3e146102dc57600080fd5b806340c10f191461021e57806342966c681461023157806370a082311461024457806379cc67901461026d57806391d148541461028057600080fd5b8063248a9ca3116100ff578063248a9ca3146101b15780632f2ff15d146101d4578063313ce567146101e957806336568abe146101f8578063395093511461020b57600080fd5b806301ffc9a71461013c57806306fdde0314610164578063095ea7b31461017957806318160ddd1461018c57806323b872dd1461019e575b600080fd5b61014f61014a36600461102e565b6102ef565b60405190151581526020015b60405180910390f35b61016c610326565b60405161015b91906110cb565b61014f610187366004610fcb565b6103b8565b6002545b60405190815260200161015b565b61014f6101ac366004610f90565b6103d0565b6101906101bf366004610ff4565b60009081526005602052604090206001015490565b6101e76101e236600461100c565b6103f4565b005b6040516012815260200161015b565b6101e761020636600461100c565b61041e565b61014f610219366004610fcb565b6104a1565b6101e761022c366004610fcb565b6104c3565b6101e761023f366004610ff4565b610516565b610190610252366004610f44565b6001600160a01b031660009081526020819052604090205490565b6101e761027b366004610fcb565b610523565b61014f61028e36600461100c565b610538565b61016c610563565b610190600081565b61014f6102b1366004610fcb565b610572565b61014f6102c4366004610fcb565b6105ed565b6101e76102d736600461100c565b6105fb565b6101906102ea366004610f5e565b610620565b60006001600160e01b03198216637965db0b60e01b148061032057506301ffc9a760e01b6001600160e01b03198316145b92915050565b6060600380546103359061118f565b80601f01602080910402602001604051908101604052809291908181526020018280546103619061118f565b80156103ae5780601f10610383576101008083540402835291602001916103ae565b820191906000526020600020905b81548152906001019060200180831161039157829003601f168201915b5050505050905090565b6000336103c681858561064b565b5060019392505050565b6000336103de85828561076f565b6103e98585856107e9565b506001949350505050565b60008281526005602052604090206001015461040f816109b7565b61041983836109c1565b505050565b6001600160a01b03811633146104935760405162461bcd60e51b815260206004820152602f60248201527f416363657373436f6e74726f6c3a2063616e206f6e6c792072656e6f756e636560448201526e103937b632b9903337b91039b2b63360891b60648201526084015b60405180910390fd5b61049d8282610a47565b5050565b6000336103c68185856104b48383610620565b6104be91906110fe565b61064b565b60408051808201909152600781526626a0a720a3a2a960c91b6020909101527faf290d8680820aad922855f39b306097b20e28774d6c1ad35a20325630c3a02c61050c816109b7565b6104198383610aae565b6105203382610b8d565b50565b61052e82338361076f565b61049d8282610b8d565b60009182526005602090815260408084206001600160a01b0393909316845291905290205460ff1690565b6060600480546103359061118f565b600033816105808286610620565b9050838110156105e05760405162461bcd60e51b815260206004820152602560248201527f45524332303a2064656372656173656420616c6c6f77616e63652062656c6f77604482015264207a65726f60d81b606482015260840161048a565b6103e9828686840361064b565b6000336103c68185856107e9565b600082815260056020526040902060010154610616816109b7565b6104198383610a47565b6001600160a01b03918216600090815260016020908152604080832093909416825291909152205490565b6001600160a01b0383166106ad5760405162461bcd60e51b8152602060048201526024808201527f45524332303a20617070726f76652066726f6d20746865207a65726f206164646044820152637265737360e01b606482015260840161048a565b6001600160a01b03821661070e5760405162461bcd60e51b815260206004820152602260248201527f45524332303a20617070726f766520746f20746865207a65726f206164647265604482015261737360f01b606482015260840161048a565b6001600160a01b0383811660008181526001602090815260408083209487168084529482529182902085905590518481527f8c5be1e5ebec7d5bd14f71427d1e84f3dd0314c0f7b2291e5b200ac8c7c3b925910160405180910390a3505050565b600061077b8484610620565b905060001981146107e357818110156107d65760405162461bcd60e51b815260206004820152601d60248201527f45524332303a20696e73756666696369656e7420616c6c6f77616e6365000000604482015260640161048a565b6107e3848484840361064b565b50505050565b6001600160a01b03831661084d5760405162461bcd60e51b815260206004820152602560248201527f45524332303a207472616e736665722066726f6d20746865207a65726f206164604482015264647265737360d81b606482015260840161048a565b6001600160a01b0382166108af5760405162461bcd60e51b815260206004820152602360248201527f45524332303a207472616e7366657220746f20746865207a65726f206164647260448201526265737360e81b606482015260840161048a565b6001600160a01b038316600090815260208190526040902054818110156109275760405162461bcd60e51b815260206004820152602660248201527f45524332303a207472616e7366657220616d6f756e7420657863656564732062604482015265616c616e636560d01b606482015260840161048a565b6001600160a01b0380851660009081526020819052604080822085850390559185168152908120805484929061095e9084906110fe565b92505081905550826001600160a01b0316846001600160a01b03167fddf252ad1be2c89b69c2b068fc378daa952ba7f163c4a11628f55a4df523b3ef846040516109aa91815260200190565b60405180910390a36107e3565b6105208133610cdb565b6109cb8282610538565b61049d5760008281526005602090815260408083206001600160a01b03851684529091529020805460ff19166001179055610a033390565b6001600160a01b0316816001600160a01b0316837f2f8788117e7eff1d82e926ec794901d17c78024a50270940304540a733656f0d60405160405180910390a45050565b610a518282610538565b1561049d5760008281526005602090815260408083206001600160a01b0385168085529252808320805460ff1916905551339285917ff6391f5c32d9c69d2a47ea670b442974b53935d1edc7fd64eb21e047a839171b9190a45050565b6001600160a01b038216610b045760405162461bcd60e51b815260206004820152601f60248201527f45524332303a206d696e7420746f20746865207a65726f206164647265737300604482015260640161048a565b8060026000828254610b1691906110fe565b90915550506001600160a01b03821660009081526020819052604081208054839290610b439084906110fe565b90915550506040518181526001600160a01b038316906000907fddf252ad1be2c89b69c2b068fc378daa952ba7f163c4a11628f55a4df523b3ef9060200160405180910390a35050565b6001600160a01b038216610bed5760405162461bcd60e51b815260206004820152602160248201527f45524332303a206275726e2066726f6d20746865207a65726f206164647265736044820152607360f81b606482015260840161048a565b6001600160a01b03821660009081526020819052604090205481811015610c615760405162461bcd60e51b815260206004820152602260248201527f45524332303a206275726e20616d6f756e7420657863656564732062616c616e604482015261636560f01b606482015260840161048a565b6001600160a01b0383166000908152602081905260408120838303905560028054849290610c90908490611135565b90915550506040518281526000906001600160a01b038516907fddf252ad1be2c89b69c2b068fc378daa952ba7f163c4a11628f55a4df523b3ef9060200160405180910390a3505050565b610ce58282610538565b61049d57610cfd816001600160a01b03166014610d3f565b610d08836020610d3f565b604051602001610d19929190611056565b60408051601f198184030181529082905262461bcd60e51b825261048a916004016110cb565b60606000610d4e836002611116565b610d599060026110fe565b67ffffffffffffffff811115610d7f57634e487b7160e01b600052604160045260246000fd5b6040519080825280601f01601f191660200182016040528015610da9576020820181803683370190505b509050600360fc1b81600081518110610dd257634e487b7160e01b600052603260045260246000fd5b60200101906001600160f81b031916908160001a905350600f60fb1b81600181518110610e0f57634e487b7160e01b600052603260045260246000fd5b60200101906001600160f81b031916908160001a9053506000610e33846002611116565b610e3e9060016110fe565b90505b6001811115610ed2576f181899199a1a9b1b9c1cb0b131b232b360811b85600f1660108110610e8057634e487b7160e01b600052603260045260246000fd5b1a60f81b828281518110610ea457634e487b7160e01b600052603260045260246000fd5b60200101906001600160f81b031916908160001a90535060049490941c93610ecb81611178565b9050610e41565b508315610f215760405162461bcd60e51b815260206004820181905260248201527f537472696e67733a20686578206c656e67746820696e73756666696369656e74604482015260640161048a565b9392505050565b80356001600160a01b0381168114610f3f57600080fd5b919050565b600060208284031215610f55578081fd5b610f2182610f28565b60008060408385031215610f70578081fd5b610f7983610f28565b9150610f8760208401610f28565b90509250929050565b600080600060608486031215610fa4578081fd5b610fad84610f28565b9250610fbb60208501610f28565b9150604084013590509250925092565b60008060408385031215610fdd578182fd5b610fe683610f28565b946020939093013593505050565b600060208284031215611005578081fd5b5035919050565b6000806040838503121561101e578182fd5b82359150610f8760208401610f28565b60006020828403121561103f578081fd5b81356001600160e01b031981168114610f21578182fd5b7f416363657373436f6e74726f6c3a206163636f756e742000000000000000000081526000835161108e81601785016020880161114c565b7001034b99036b4b9b9b4b733903937b6329607d1b60179184019182015283516110bf81602884016020880161114c565b01602801949350505050565b60208152600082518060208401526110ea81604085016020870161114c565b601f01601f19169190910160400192915050565b60008219821115611111576111116111ca565b500190565b6000816000190483118215151615611130576111306111ca565b500290565b600082821015611147576111476111ca565b500390565b60005b8381101561116757818101518382015260200161114f565b838111156107e35750506000910152565b600081611187576111876111ca565b506000190190565b600181811c908216806111a357607f821691505b602082108114156111c457634e487b7160e01b600052602260045260246000fd5b50919050565b634e487b7160e01b600052601160045260246000fdfea26469706673582212209abd6002d3aad97c8e1b6a1e649c8a2f947fdcf7849f60240c8f1cb0de5994bd64736f6c63430008040033",
  "linkReferences": {},
  "deployedLinkReferences": {}
}