{
  "_format": "hh-sol-artifact-1",
  "contractName": "StakeBox",
  "sourceName": "contracts/StakeBox.sol",
  "abi": [
    {
      "inputs": [
        {
          "internalType": "address",
          "name": "_stakingToken",
          "type": "address"
        },
        {
          "internalType": "address",
          "name": "_rewardToken",
          "type": "address"
        }
      ],
      "stateMutability": "nonpayable",
      "type": "constructor"
    },
    {
      "anonymous": false,
      "inputs": [
        {
          "indexed": true,
          "internalType": "bytes32",
          "name": "role",
          "type": "bytes32"
        },
        {
          "indexed": true,
          "internalType": "bytes32",
          "name": "previousAdminRole",
          "type": "bytes32"
        },
        {
          "indexed": true,
          "internalType": "bytes32",
          "name": "newAdminRole",
          "type": "bytes32"
        }
      ],
      "name": "RoleAdminChanged",
      "type": "event"
    },
    {
      "anonymous": false,
      "inputs": [
        {
          "indexed": true,
          "internalType": "bytes32",
          "name": "role",
          "type": "bytes32"
        },
        {
          "indexed": true,
          "internalType": "address",
          "name": "account",
          "type": "address"
        },
        {
          "indexed": true,
          "internalType": "address",
          "name": "sender",
          "type": "address"
        }
      ],
      "name": "RoleGranted",
      "type": "event"
    },
    {
      "anonymous": false,
      "inputs": [
        {
          "indexed": true,
          "internalType": "bytes32",
          "name": "role",
          "type": "bytes32"
        },
        {
          "indexed": true,
          "internalType": "address",
          "name": "account",
          "type": "address"
        },
        {
          "indexed": true,
          "internalType": "address",
          "name": "sender",
          "type": "address"
        }
      ],
      "name": "RoleRevoked",
      "type": "event"
    },
    {
      "inputs": [],
      "name": "DEFAULT_ADMIN_ROLE",
      "outputs": [
        {
          "internalType": "bytes32",
          "name": "",
          "type": "bytes32"
        }
      ],
      "stateMutability": "view",
      "type": "function"
    },
    {
      "inputs": [
        {
          "internalType": "address",
          "name": "",
          "type": "address"
        }
      ],
      "name": "balanceOf",
      "outputs": [
        {
          "internalType": "uint256",
          "name": "",
          "type": "uint256"
        }
      ],
      "stateMutability": "view",
      "type": "function"
    },
    {
      "inputs": [],
      "name": "duration",
      "outputs": [
        {
          "internalType": "uint256",
          "name": "",
          "type": "uint256"
        }
      ],
      "stateMutability": "view",
      "type": "function"
    },
    {
      "inputs": [
        {
          "internalType": "address",
          "name": "_account",
          "type": "address"
        }
      ],
      "name": "earned",
      "outputs": [
        {
          "internalType": "uint256",
          "name": "",
          "type": "uint256"
        }
      ],
      "stateMutability": "view",
      "type": "function"
    },
    {
      "inputs": [],
      "name": "finishAt",
      "outputs": [
        {
          "internalType": "uint256",
          "name": "",
          "type": "uint256"
        }
      ],
      "stateMutability": "view",
      "type": "function"
    },
    {
      "inputs": [],
      "name": "getReward",
      "outputs": [],
      "stateMutability": "nonpayable",
      "type": "function"
    },
    {
      "inputs": [
        {
          "internalType": "bytes32",
          "name": "role",
          "type": "bytes32"
        }
      ],
      "name": "getRoleAdmin",
      "outputs": [
        {
          "internalType": "bytes32",
          "name": "",
          "type": "bytes32"
        }
      ],
      "stateMutability": "view",
      "type": "function"
    },
    {
      "inputs": [
        {
          "internalType": "bytes32",
          "name": "role",
          "type": "bytes32"
        },
        {
          "internalType": "address",
          "name": "account",
          "type": "address"
        }
      ],
      "name": "grantRole",
      "outputs": [],
      "stateMutability": "nonpayable",
      "type": "function"
    },
    {
      "inputs": [
        {
          "internalType": "bytes32",
          "name": "role",
          "type": "bytes32"
        },
        {
          "internalType": "address",
          "name": "account",
          "type": "address"
        }
      ],
      "name": "hasRole",
      "outputs": [
        {
          "internalType": "bool",
          "name": "",
          "type": "bool"
        }
      ],
      "stateMutability": "view",
      "type": "function"
    },
    {
      "inputs": [
        {
          "internalType": "uint256",
          "name": "_amount",
          "type": "uint256"
        }
      ],
      "name": "notifyRewardAmount",
      "outputs": [],
      "stateMutability": "nonpayable",
      "type": "function"
    },
    {
      "inputs": [],
      "name": "owner",
      "outputs": [
        {
          "internalType": "address",
          "name": "",
          "type": "address"
        }
      ],
      "stateMutability": "view",
      "type": "function"
    },
    {
      "inputs": [
        {
          "internalType": "bytes32",
          "name": "role",
          "type": "bytes32"
        },
        {
          "internalType": "address",
          "name": "account",
          "type": "address"
        }
      ],
      "name": "renounceRole",
      "outputs": [],
      "stateMutability": "nonpayable",
      "type": "function"
    },
    {
      "inputs": [
        {
          "internalType": "bytes32",
          "name": "role",
          "type": "bytes32"
        },
        {
          "internalType": "address",
          "name": "account",
          "type": "address"
        }
      ],
      "name": "revokeRole",
      "outputs": [],
      "stateMutability": "nonpayable",
      "type": "function"
    },
    {
      "inputs": [],
      "name": "rewardPerToken",
      "outputs": [
        {
          "internalType": "uint256",
          "name": "",
          "type": "uint256"
        }
      ],
      "stateMutability": "view",
      "type": "function"
    },
    {
      "inputs": [],
      "name": "rewardPerTokenStored",
      "outputs": [
        {
          "internalType": "uint256",
          "name": "",
          "type": "uint256"
        }
      ],
      "stateMutability": "view",
      "type": "function"
    },
    {
      "inputs": [],
      "name": "rewardRate",
      "outputs": [
        {
          "internalType": "uint256",
          "name": "",
          "type": "uint256"
        }
      ],
      "stateMutability": "view",
      "type": "function"
    },
    {
      "inputs": [
        {
          "internalType": "address",
          "name": "",
          "type": "address"
        }
      ],
      "name": "rewards",
      "outputs": [
        {
          "internalType": "uint256",
          "name": "",
          "type": "uint256"
        }
      ],
      "stateMutability": "view",
      "type": "function"
    },
    {
      "inputs": [],
      "name": "rewardsToken",
      "outputs": [
        {
          "internalType": "contract IERC20",
          "name": "",
          "type": "address"
        }
      ],
      "stateMutability": "view",
      "type": "function"
    },
    {
      "inputs": [
        {
          "internalType": "uint256",
          "name": "_duration",
          "type": "uint256"
        }
      ],
      "name": "setRewardsDuration",
      "outputs": [],
      "stateMutability": "nonpayable",
      "type": "function"
    },
    {
      "inputs": [
        {
          "internalType": "uint256",
          "name": "_amount",
          "type": "uint256"
        }
      ],
      "name": "stake",
      "outputs": [],
      "stateMutability": "nonpayable",
      "type": "function"
    },
    {
      "inputs": [],
      "name": "stakingToken",
      "outputs": [
        {
          "internalType": "contract IERC20",
          "name": "",
          "type": "address"
        }
      ],
      "stateMutability": "view",
      "type": "function"
    },
    {
      "inputs": [
        {
          "internalType": "bytes4",
          "name": "interfaceId",
          "type": "bytes4"
        }
      ],
      "name": "supportsInterface",
      "outputs": [
        {
          "internalType": "bool",
          "name": "",
          "type": "bool"
        }
      ],
      "stateMutability": "view",
      "type": "function"
    },
    {
      "inputs": [],
      "name": "totalSupply",
      "outputs": [
        {
          "internalType": "uint256",
          "name": "",
          "type": "uint256"
        }
      ],
      "stateMutability": "view",
      "type": "function"
    },
    {
      "inputs": [],
      "name": "updatedAt",
      "outputs": [
        {
          "internalType": "uint256",
          "name": "",
          "type": "uint256"
        }
      ],
      "stateMutability": "view",
      "type": "function"
    },
    {
      "inputs": [
        {
          "internalType": "address",
          "name": "",
          "type": "address"
        }
      ],
      "name": "userRewardPerTokenPaid",
      "outputs": [
        {
          "internalType": "uint256",
          "name": "",
          "type": "uint256"
        }
      ],
      "stateMutability": "view",
      "type": "function"
    },
    {
      "inputs": [
        {
          "internalType": "uint256",
          "name": "_amount",
          "type": "uint256"
        }
      ],
      "name": "withdraw",
      "outputs": [],
      "stateMutability": "nonpayable",
      "type": "function"
    }
  ],
  "bytecode": "0x60c06040523480156200001157600080fd5b50604051620016d9380380620016d9833981016040819052620000349162000166565b60016000908155620000479033620000b1565b60408051808201909152600781526626a0a720a3a2a960c91b602090910152620000927faf290d8680820aad922855f39b306097b20e28774d6c1ad35a20325630c3a02c33620000b1565b6001600160601b0319606092831b8116608052911b1660a0526200019d565b620000bd8282620000c1565b5050565b60008281526001602090815260408083206001600160a01b038516845290915290205460ff16620000bd5760008281526001602081815260408084206001600160a01b0386168086529252808420805460ff19169093179092559051339285917f2f8788117e7eff1d82e926ec794901d17c78024a50270940304540a733656f0d9190a45050565b80516001600160a01b03811681146200016157600080fd5b919050565b6000806040838503121562000179578182fd5b620001848362000149565b9150620001946020840162000149565b90509250929050565b60805160601c60a05160601c6114e6620001f36000396000818161038201528181610690015281816108e2015281816109c00152610bb90152600081816102b5015281816105bd0152610d2501526114e66000f3fe608060405234801561001057600080fd5b506004361061018d5760003560e01c806372f702f3116100de578063a217fddf11610097578063cd3daf9d11610071578063cd3daf9d14610375578063d1af0c7d1461037d578063d547741f146103a4578063df136d65146103b757600080fd5b8063a217fddf14610347578063a694fc3a1461034f578063cc1a378f1461036257600080fd5b806372f702f3146102b05780637519ab50146102ef5780637b0a47ee146102f85780638b876347146103015780638da5cb5b1461032157806391d148541461033457600080fd5b80632e1a7d4d1161014b5780633c6b16ab116101255780633c6b16ab1461026c5780633d18b9121461027f57806367d3b4881461028757806370a082311461029057600080fd5b80632e1a7d4d146102315780632f2ff15d1461024657806336568abe1461025957600080fd5b80628cc2621461019257806301ffc9a7146101b85780630700037d146101db5780630fb5a6b4146101fb57806318160ddd14610204578063248a9ca31461020d575b600080fd5b6101a56101a0366004611280565b6103c0565b6040519081526020015b60405180910390f35b6101cb6101c63660046112fd565b61043d565b60405190151581526020016101af565b6101a56101e9366004611280565b60096020526000908152604090205481565b6101a560035481565b6101a5600a5481565b6101a561021b3660046112ba565b6000908152600160208190526040909120015490565b61024461023f3660046112ba565b610472565b005b6102446102543660046112d2565b610718565b6102446102673660046112d2565b610743565b61024461027a3660046112ba565b6107c1565b610244610ab9565b6101a560045481565b6101a561029e366004611280565b600b6020526000908152604090205481565b6102d77f000000000000000000000000000000000000000000000000000000000000000081565b6040516001600160a01b0390911681526020016101af565b6101a560055481565b6101a560065481565b6101a561030f366004611280565b60086020526000908152604090205481565b6002546102d7906001600160a01b031681565b6101cb6103423660046112d2565b610c40565b6101a5600081565b61024461035d3660046112ba565b610c6b565b6102446103703660046112ba565b610deb565b6101a5610e8b565b6102d77f000000000000000000000000000000000000000000000000000000000000000081565b6102446103b23660046112d2565b610ef2565b6101a560075481565b6001600160a01b0381166000908152600960209081526040808320546008909252822054670de0b6b3a7640000906103f6610e8b565b610400919061143c565b6001600160a01b0385166000908152600b6020526040902054610423919061141d565b61042d91906113fd565b61043791906113e5565b92915050565b60006001600160e01b03198216637965db0b60e01b148061043757506301ffc9a760e01b6001600160e01b0319831614610437565b3361047b610e8b565b600755610486610f18565b6005556001600160a01b038116156104cd576104a1816103c0565b6001600160a01b0382166000908152600960209081526040808320939093556007546008909152919020555b600260005414156105255760405162461bcd60e51b815260206004820152601f60248201527f5265656e7472616e637947756172643a207265656e7472616e742063616c6c0060448201526064015b60405180910390fd5b6002600055816105645760405162461bcd60e51b815260206004820152600a6024820152690616d6f756e74203d20360b41b604482015260640161051c565b336000908152600b60205260408120805484929061058390849061143c565b9250508190555081600a600082825461059c919061143c565b909155505060405163a9059cbb60e01b8152336004820152602481018390527f00000000000000000000000000000000000000000000000000000000000000006001600160a01b03169063a9059cbb90604401602060405180830381600087803b15801561060957600080fd5b505af115801561061d573d6000803e3d6000fd5b505050506040513d601f19601f82011682018060405250810190610641919061129a565b5033600090815260096020526040902054801561070e5733600081815260096020526040808220919091555163a9059cbb60e01b81526004810191909152602481018290526001600160a01b037f0000000000000000000000000000000000000000000000000000000000000000169063a9059cbb90604401602060405180830381600087803b1580156106d457600080fd5b505af11580156106e8573d6000803e3d6000fd5b505050506040513d601f19601f8201168201806040525081019061070c919061129a565b505b5050600160005550565b6000828152600160208190526040909120015461073481610f26565b61073e8383610f33565b505050565b6001600160a01b03811633146107b35760405162461bcd60e51b815260206004820152602f60248201527f416363657373436f6e74726f6c3a2063616e206f6e6c792072656e6f756e636560448201526e103937b632b9903337b91039b2b63360891b606482015260840161051c565b6107bd8282610f9e565b5050565b60408051808201909152600781526626a0a720a3a2a960c91b6020909101527faf290d8680820aad922855f39b306097b20e28774d6c1ad35a20325630c3a02c61080a81610f26565b6000610814610e8b565b60075561081f610f18565b6005556001600160a01b038116156108665761083a816103c0565b6001600160a01b0382166000908152600960209081526040808320939093556007546008909152919020555b60045442106108845760035461087c90846113fd565b6006556108c0565b600060065442600454610897919061143c565b6108a1919061141d565b6003549091506108b182866113e5565b6108bb91906113fd565b600655505b6040516323b872dd60e01b8152336004820152306024820152604481018490527f00000000000000000000000000000000000000000000000000000000000000006001600160a01b0316906323b872dd90606401602060405180830381600087803b15801561092e57600080fd5b505af1158015610942573d6000803e3d6000fd5b505050506040513d601f19601f82011682018060405250810190610966919061129a565b506000600654116109ab5760405162461bcd60e51b815260206004820152600f60248201526e07265776172642072617465203d203608c1b604482015260640161051c565b6040516370a0823160e01b81523060048201527f00000000000000000000000000000000000000000000000000000000000000006001600160a01b0316906370a082319060240160206040518083038186803b158015610a0a57600080fd5b505afa158015610a1e573d6000803e3d6000fd5b505050506040513d601f19601f82011682018060405250810190610a429190611325565b600354600654610a52919061141d565b1115610aa05760405162461bcd60e51b815260206004820152601760248201527f72657761726420616d6f756e74203e2062616c616e6365000000000000000000604482015260640161051c565b600354610aad90426113e5565b60045550504260055550565b33610ac2610e8b565b600755610acd610f18565b6005556001600160a01b03811615610b1457610ae8816103c0565b6001600160a01b0382166000908152600960209081526040808320939093556007546008909152919020555b60026000541415610b675760405162461bcd60e51b815260206004820152601f60248201527f5265656e7472616e637947756172643a207265656e7472616e742063616c6c00604482015260640161051c565b60026000908155338152600960205260409020548015610c375733600081815260096020526040808220919091555163a9059cbb60e01b81526004810191909152602481018290526001600160a01b037f0000000000000000000000000000000000000000000000000000000000000000169063a9059cbb90604401602060405180830381600087803b158015610bfd57600080fd5b505af1158015610c11573d6000803e3d6000fd5b505050506040513d601f19601f82011682018060405250810190610c35919061129a565b505b50506001600055565b60009182526001602090815260408084206001600160a01b0393909316845291905290205460ff1690565b33610c74610e8b565b600755610c7f610f18565b6005556001600160a01b03811615610cc657610c9a816103c0565b6001600160a01b0382166000908152600960209081526040808320939093556007546008909152919020555b60008211610d035760405162461bcd60e51b815260206004820152600a6024820152690616d6f756e74203d20360b41b604482015260640161051c565b6040516323b872dd60e01b8152336004820152306024820152604481018390527f00000000000000000000000000000000000000000000000000000000000000006001600160a01b0316906323b872dd90606401602060405180830381600087803b158015610d7157600080fd5b505af1158015610d85573d6000803e3d6000fd5b505050506040513d601f19601f82011682018060405250810190610da9919061129a565b50336000908152600b602052604081208054849290610dc99084906113e5565b9250508190555081600a6000828254610de291906113e5565b90915550505050565b60408051808201909152600781526626a0a720a3a2a960c91b6020909101527faf290d8680820aad922855f39b306097b20e28774d6c1ad35a20325630c3a02c610e3481610f26565b4260045410610e855760405162461bcd60e51b815260206004820152601c60248201527f726577617264206475726174696f6e206e6f742066696e697368656400000000604482015260640161051c565b50600355565b6000600a5460001415610e9f575060075490565b600a54600554610ead610f18565b610eb7919061143c565b600654610ec4919061141d565b610ed690670de0b6b3a764000061141d565b610ee091906113fd565b600754610eed91906113e5565b905090565b60008281526001602081905260409091200154610f0e81610f26565b61073e8383610f9e565b6000610eed60045442611005565b610f30813361101e565b50565b610f3d8282610c40565b6107bd5760008281526001602081815260408084206001600160a01b0386168086529252808420805460ff19169093179092559051339285917f2f8788117e7eff1d82e926ec794901d17c78024a50270940304540a733656f0d9190a45050565b610fa88282610c40565b156107bd5760008281526001602090815260408083206001600160a01b0385168085529252808320805460ff1916905551339285917ff6391f5c32d9c69d2a47ea670b442974b53935d1edc7fd64eb21e047a839171b9190a45050565b6000818311156110155781611017565b825b9392505050565b6110288282610c40565b6107bd57611040816001600160a01b03166014611082565b61104b836020611082565b60405160200161105c92919061133d565b60408051601f198184030181529082905262461bcd60e51b825261051c916004016113b2565b6060600061109183600261141d565b61109c9060026113e5565b67ffffffffffffffff8111156110c257634e487b7160e01b600052604160045260246000fd5b6040519080825280601f01601f1916602001820160405280156110ec576020820181803683370190505b509050600360fc1b8160008151811061111557634e487b7160e01b600052603260045260246000fd5b60200101906001600160f81b031916908160001a905350600f60fb1b8160018151811061115257634e487b7160e01b600052603260045260246000fd5b60200101906001600160f81b031916908160001a905350600061117684600261141d565b6111819060016113e5565b90505b6001811115611215576f181899199a1a9b1b9c1cb0b131b232b360811b85600f16601081106111c357634e487b7160e01b600052603260045260246000fd5b1a60f81b8282815181106111e757634e487b7160e01b600052603260045260246000fd5b60200101906001600160f81b031916908160001a90535060049490941c9361120e81611483565b9050611184565b5083156110175760405162461bcd60e51b815260206004820181905260248201527f537472696e67733a20686578206c656e67746820696e73756666696369656e74604482015260640161051c565b80356001600160a01b038116811461127b57600080fd5b919050565b600060208284031215611291578081fd5b61101782611264565b6000602082840312156112ab578081fd5b81518015158114611017578182fd5b6000602082840312156112cb578081fd5b5035919050565b600080604083850312156112e4578081fd5b823591506112f460208401611264565b90509250929050565b60006020828403121561130e578081fd5b81356001600160e01b031981168114611017578182fd5b600060208284031215611336578081fd5b5051919050565b7f416363657373436f6e74726f6c3a206163636f756e7420000000000000000000815260008351611375816017850160208801611453565b7001034b99036b4b9b9b4b733903937b6329607d1b60179184019182015283516113a6816028840160208801611453565b01602801949350505050565b60208152600082518060208401526113d1816040850160208701611453565b601f01601f19169190910160400192915050565b600082198211156113f8576113f861149a565b500190565b60008261141857634e487b7160e01b81526012600452602481fd5b500490565b60008160001904831182151516156114375761143761149a565b500290565b60008282101561144e5761144e61149a565b500390565b60005b8381101561146e578181015183820152602001611456565b8381111561147d576000848401525b50505050565b6000816114925761149261149a565b506000190190565b634e487b7160e01b600052601160045260246000fdfea264697066735822122092d754ea1ee268af8caafff7c52d074f40fad15c9298e8d42f947567cd9d5baf64736f6c63430008040033",
  "linkReferences": {},
  "deployedLinkReferences": {}
}