{
  "_format": "hh-sol-artifact-1",
  "contractName": "TicketMarket",
  "sourceName": "contracts/TicketMarket.sol",
  "abi": [
    {
      "inputs": [
        {
          "internalType": "address",
          "name": "_treasury",
          "type": "address"
        },
        {
          "internalType": "address",
          "name": "_ticketTokn",
          "type": "address"
        }
      ],
      "stateMutability": "nonpayable",
      "type": "constructor"
    },
    {
      "inputs": [],
      "name": "FailedToSendETH",
      "type": "error"
    },
    {
      "inputs": [
        {
          "internalType": "uint8",
          "name": "rate",
          "type": "uint8"
        }
      ],
      "name": "rateMustBeMoreThan1",
      "type": "error"
    },
    {
      "anonymous": false,
      "inputs": [
        {
          "indexed": true,
          "internalType": "bytes32",
          "name": "role",
          "type": "bytes32"
        },
        {
          "indexed": true,
          "internalType": "bytes32",
          "name": "previousAdminRole",
          "type": "bytes32"
        },
        {
          "indexed": true,
          "internalType": "bytes32",
          "name": "newAdminRole",
          "type": "bytes32"
        }
      ],
      "name": "RoleAdminChanged",
      "type": "event"
    },
    {
      "anonymous": false,
      "inputs": [
        {
          "indexed": true,
          "internalType": "bytes32",
          "name": "role",
          "type": "bytes32"
        },
        {
          "indexed": true,
          "internalType": "address",
          "name": "account",
          "type": "address"
        },
        {
          "indexed": true,
          "internalType": "address",
          "name": "sender",
          "type": "address"
        }
      ],
      "name": "RoleGranted",
      "type": "event"
    },
    {
      "anonymous": false,
      "inputs": [
        {
          "indexed": true,
          "internalType": "bytes32",
          "name": "role",
          "type": "bytes32"
        },
        {
          "indexed": true,
          "internalType": "address",
          "name": "account",
          "type": "address"
        },
        {
          "indexed": true,
          "internalType": "address",
          "name": "sender",
          "type": "address"
        }
      ],
      "name": "RoleRevoked",
      "type": "event"
    },
    {
      "inputs": [],
      "name": "DEFAULT_ADMIN_ROLE",
      "outputs": [
        {
          "internalType": "bytes32",
          "name": "",
          "type": "bytes32"
        }
      ],
      "stateMutability": "view",
      "type": "function"
    },
    {
      "inputs": [],
      "name": "buy",
      "outputs": [],
      "stateMutability": "payable",
      "type": "function"
    },
    {
      "inputs": [
        {
          "internalType": "uint256",
          "name": "_paidValue",
          "type": "uint256"
        }
      ],
      "name": "calculate",
      "outputs": [
        {
          "internalType": "uint256",
          "name": "",
          "type": "uint256"
        }
      ],
      "stateMutability": "view",
      "type": "function"
    },
    {
      "inputs": [
        {
          "internalType": "bytes32",
          "name": "role",
          "type": "bytes32"
        }
      ],
      "name": "getRoleAdmin",
      "outputs": [
        {
          "internalType": "bytes32",
          "name": "",
          "type": "bytes32"
        }
      ],
      "stateMutability": "view",
      "type": "function"
    },
    {
      "inputs": [
        {
          "internalType": "bytes32",
          "name": "role",
          "type": "bytes32"
        },
        {
          "internalType": "address",
          "name": "account",
          "type": "address"
        }
      ],
      "name": "grantRole",
      "outputs": [],
      "stateMutability": "nonpayable",
      "type": "function"
    },
    {
      "inputs": [
        {
          "internalType": "bytes32",
          "name": "role",
          "type": "bytes32"
        },
        {
          "internalType": "address",
          "name": "account",
          "type": "address"
        }
      ],
      "name": "hasRole",
      "outputs": [
        {
          "internalType": "bool",
          "name": "",
          "type": "bool"
        }
      ],
      "stateMutability": "view",
      "type": "function"
    },
    {
      "inputs": [
        {
          "internalType": "bytes32",
          "name": "role",
          "type": "bytes32"
        },
        {
          "internalType": "address",
          "name": "account",
          "type": "address"
        }
      ],
      "name": "renounceRole",
      "outputs": [],
      "stateMutability": "nonpayable",
      "type": "function"
    },
    {
      "inputs": [
        {
          "internalType": "bytes32",
          "name": "role",
          "type": "bytes32"
        },
        {
          "internalType": "address",
          "name": "account",
          "type": "address"
        }
      ],
      "name": "revokeRole",
      "outputs": [],
      "stateMutability": "nonpayable",
      "type": "function"
    },
    {
      "inputs": [],
      "name": "s_rate",
      "outputs": [
        {
          "internalType": "uint8",
          "name": "",
          "type": "uint8"
        }
      ],
      "stateMutability": "view",
      "type": "function"
    },
    {
      "inputs": [],
      "name": "s_ticketTokn",
      "outputs": [
        {
          "internalType": "address",
          "name": "",
          "type": "address"
        }
      ],
      "stateMutability": "view",
      "type": "function"
    },
    {
      "inputs": [],
      "name": "s_treasury",
      "outputs": [
        {
          "internalType": "address",
          "name": "",
          "type": "address"
        }
      ],
      "stateMutability": "view",
      "type": "function"
    },
    {
      "inputs": [
        {
          "internalType": "uint8",
          "name": "_rate",
          "type": "uint8"
        }
      ],
      "name": "setRate",
      "outputs": [],
      "stateMutability": "nonpayable",
      "type": "function"
    },
    {
      "inputs": [
        {
          "internalType": "bytes4",
          "name": "interfaceId",
          "type": "bytes4"
        }
      ],
      "name": "supportsInterface",
      "outputs": [
        {
          "internalType": "bool",
          "name": "",
          "type": "bool"
        }
      ],
      "stateMutability": "view",
      "type": "function"
    }
  ],
  "bytecode": "0x60c060405234801561001057600080fd5b50604051610d72380380610d7283398101604081905261002f91610164565b6001600090815561004090336100b3565b60408051808201909152600781526626a0a720a3a2a960c91b6020909101526100897faf290d8680820aad922855f39b306097b20e28774d6c1ad35a20325630c3a02c336100b3565b6002805460ff1916811790556001600160601b0319606092831b811660a052911b16608052610196565b6100bd82826100c1565b5050565b60008281526001602090815260408083206001600160a01b038516845290915290205460ff166100bd5760008281526001602081815260408084206001600160a01b0386168086529252808420805460ff19169093179092559051339285917f2f8788117e7eff1d82e926ec794901d17c78024a50270940304540a733656f0d9190a45050565b80516001600160a01b038116811461015f57600080fd5b919050565b60008060408385031215610176578182fd5b61017f83610148565b915061018d60208401610148565b90509250929050565b60805160601c60a05160601c610ba36101cf60003960008181610264015261057a0152600081816101fb01526104e00152610ba36000f3fe6080604052600436106100c25760003560e01c806391d148541161007f578063a6f2ae3a11610059578063a6f2ae3a1461024a578063b0eacef014610252578063b9d92de814610286578063d547741f146102a657600080fd5b806391d14854146101c95780639264b2a0146101e9578063a217fddf1461023557600080fd5b806301ffc9a7146100c757806307387413146100fc578063248a9ca3146101285780632f2ff15d1461016757806336568abe146101895780634afe2f80146101a9575b600080fd5b3480156100d357600080fd5b506100e76100e23660046109cc565b6102c6565b60405190151581526020015b60405180910390f35b34801561010857600080fd5b506002546101169060ff1681565b60405160ff90911681526020016100f3565b34801561013457600080fd5b5061015961014336600461097a565b6000908152600160208190526040909120015490565b6040519081526020016100f3565b34801561017357600080fd5b50610187610182366004610992565b6102fd565b005b34801561019557600080fd5b506101876101a4366004610992565b610328565b3480156101b557600080fd5b506101876101c43660046109f4565b6103ab565b3480156101d557600080fd5b506100e76101e4366004610992565b610431565b3480156101f557600080fd5b5061021d7f000000000000000000000000000000000000000000000000000000000000000081565b6040516001600160a01b0390911681526020016100f3565b34801561024157600080fd5b50610159600081565b61018761045c565b34801561025e57600080fd5b5061021d7f000000000000000000000000000000000000000000000000000000000000000081565b34801561029257600080fd5b506101596102a136600461097a565b610615565b3480156102b257600080fd5b506101876102c1366004610992565b610628565b60006001600160e01b03198216637965db0b60e01b14806102f757506301ffc9a760e01b6001600160e01b03198316145b92915050565b600082815260016020819052604090912001546103198161064e565b610323838361065b565b505050565b6001600160a01b038116331461039d5760405162461bcd60e51b815260206004820152602f60248201527f416363657373436f6e74726f6c3a2063616e206f6e6c792072656e6f756e636560448201526e103937b632b9903337b91039b2b63360891b60648201526084015b60405180910390fd5b6103a782826106c6565b5050565b60408051808201909152600781526626a0a720a3a2a960c91b6020909101527faf290d8680820aad922855f39b306097b20e28774d6c1ad35a20325630c3a02c6103f48161064e565b60ff821661041a576040516365498cb760e11b815260ff83166004820152602401610394565b506002805460ff191660ff92909216919091179055565b60009182526001602090815260408084206001600160a01b0393909316845291905290205460ff1690565b600260005414156104af5760405162461bcd60e51b815260206004820152601f60248201527f5265656e7472616e637947756172643a207265656e7472616e742063616c6c006044820152606401610394565b6002600090815534906104c182610615565b6040516340c10f1960e01b8152336004820152602481018290529091507f00000000000000000000000000000000000000000000000000000000000000006001600160a01b0316906340c10f1990604401600060405180830381600087803b15801561052c57600080fd5b505af1158015610540573d6000803e3d6000fd5b505060408051600481526024810182526020810180516001600160e01b0316639c76978760e01b1790529051600093506001600160a01b037f000000000000000000000000000000000000000000000000000000000000000016925085916105a791610a15565b60006040518083038185875af1925050503d80600081146105e4576040519150601f19603f3d011682016040523d82523d6000602084013e6105e9565b606091505b505090508061060b576040516338822c1360e11b815260040160405180910390fd5b5050600160005550565b6002546000906102f79060ff1683610af1565b600082815260016020819052604090912001546106448161064e565b61032383836106c6565b610658813361072d565b50565b6106658282610431565b6103a75760008281526001602081815260408084206001600160a01b0386168086529252808420805460ff19169093179092559051339285917f2f8788117e7eff1d82e926ec794901d17c78024a50270940304540a733656f0d9190a45050565b6106d08282610431565b156103a75760008281526001602090815260408083206001600160a01b0385168085529252808320805460ff1916905551339285917ff6391f5c32d9c69d2a47ea670b442974b53935d1edc7fd64eb21e047a839171b9190a45050565b6107378282610431565b6103a75761074f816001600160a01b03166014610791565b61075a836020610791565b60405160200161076b929190610a31565b60408051601f198184030181529082905262461bcd60e51b825261039491600401610aa6565b606060006107a0836002610af1565b6107ab906002610ad9565b67ffffffffffffffff8111156107d157634e487b7160e01b600052604160045260246000fd5b6040519080825280601f01601f1916602001820160405280156107fb576020820181803683370190505b509050600360fc1b8160008151811061082457634e487b7160e01b600052603260045260246000fd5b60200101906001600160f81b031916908160001a905350600f60fb1b8160018151811061086157634e487b7160e01b600052603260045260246000fd5b60200101906001600160f81b031916908160001a9053506000610885846002610af1565b610890906001610ad9565b90505b6001811115610924576f181899199a1a9b1b9c1cb0b131b232b360811b85600f16601081106108d257634e487b7160e01b600052603260045260246000fd5b1a60f81b8282815181106108f657634e487b7160e01b600052603260045260246000fd5b60200101906001600160f81b031916908160001a90535060049490941c9361091d81610b40565b9050610893565b5083156109735760405162461bcd60e51b815260206004820181905260248201527f537472696e67733a20686578206c656e67746820696e73756666696369656e746044820152606401610394565b9392505050565b60006020828403121561098b578081fd5b5035919050565b600080604083850312156109a4578081fd5b8235915060208301356001600160a01b03811681146109c1578182fd5b809150509250929050565b6000602082840312156109dd578081fd5b81356001600160e01b031981168114610973578182fd5b600060208284031215610a05578081fd5b813560ff81168114610973578182fd5b60008251610a27818460208701610b10565b9190910192915050565b7f416363657373436f6e74726f6c3a206163636f756e7420000000000000000000815260008351610a69816017850160208801610b10565b7001034b99036b4b9b9b4b733903937b6329607d1b6017918401918201528351610a9a816028840160208801610b10565b01602801949350505050565b6020815260008251806020840152610ac5816040850160208701610b10565b601f01601f19169190910160400192915050565b60008219821115610aec57610aec610b57565b500190565b6000816000190483118215151615610b0b57610b0b610b57565b500290565b60005b83811015610b2b578181015183820152602001610b13565b83811115610b3a576000848401525b50505050565b600081610b4f57610b4f610b57565b506000190190565b634e487b7160e01b600052601160045260246000fdfea26469706673582212204375dccefee31fcd2f25fb964a605c856d9fec6a879ded649503b79863d6968a64736f6c63430008040033",
  "linkReferences": {},
  "deployedLinkReferences": {}
}