{
  "_format": "hh-sol-artifact-1",
  "contractName": "Treasury",
  "sourceName": "contracts/Treasury.sol",
  "abi": [
    {
      "inputs": [],
      "stateMutability": "nonpayable",
      "type": "constructor"
    },
    {
      "inputs": [],
      "name": "ClaimRewardsFail",
      "type": "error"
    },
    {
      "inputs": [],
      "name": "FailedToSendETH",
      "type": "error"
    },
    {
      "anonymous": false,
      "inputs": [
        {
          "indexed": true,
          "internalType": "bytes32",
          "name": "role",
          "type": "bytes32"
        },
        {
          "indexed": true,
          "internalType": "bytes32",
          "name": "previousAdminRole",
          "type": "bytes32"
        },
        {
          "indexed": true,
          "internalType": "bytes32",
          "name": "newAdminRole",
          "type": "bytes32"
        }
      ],
      "name": "RoleAdminChanged",
      "type": "event"
    },
    {
      "anonymous": false,
      "inputs": [
        {
          "indexed": true,
          "internalType": "bytes32",
          "name": "role",
          "type": "bytes32"
        },
        {
          "indexed": true,
          "internalType": "address",
          "name": "account",
          "type": "address"
        },
        {
          "indexed": true,
          "internalType": "address",
          "name": "sender",
          "type": "address"
        }
      ],
      "name": "RoleGranted",
      "type": "event"
    },
    {
      "anonymous": false,
      "inputs": [
        {
          "indexed": true,
          "internalType": "bytes32",
          "name": "role",
          "type": "bytes32"
        },
        {
          "indexed": true,
          "internalType": "address",
          "name": "account",
          "type": "address"
        },
        {
          "indexed": true,
          "internalType": "address",
          "name": "sender",
          "type": "address"
        }
      ],
      "name": "RoleRevoked",
      "type": "event"
    },
    {
      "inputs": [],
      "name": "DEFAULT_ADMIN_ROLE",
      "outputs": [
        {
          "internalType": "bytes32",
          "name": "",
          "type": "bytes32"
        }
      ],
      "stateMutability": "view",
      "type": "function"
    },
    {
      "inputs": [],
      "name": "balanceOfAdminTreasury",
      "outputs": [
        {
          "internalType": "uint256",
          "name": "",
          "type": "uint256"
        }
      ],
      "stateMutability": "view",
      "type": "function"
    },
    {
      "inputs": [],
      "name": "balanceOfRewardTreasury",
      "outputs": [
        {
          "internalType": "uint256",
          "name": "",
          "type": "uint256"
        }
      ],
      "stateMutability": "view",
      "type": "function"
    },
    {
      "inputs": [
        {
          "internalType": "uint256",
          "name": "_round",
          "type": "uint256"
        }
      ],
      "name": "balanceOfRewardTreasuryInThePastRound",
      "outputs": [
        {
          "internalType": "uint256",
          "name": "",
          "type": "uint256"
        }
      ],
      "stateMutability": "view",
      "type": "function"
    },
    {
      "inputs": [
        {
          "internalType": "address",
          "name": "_to",
          "type": "address"
        },
        {
          "internalType": "uint256",
          "name": "_round",
          "type": "uint256"
        }
      ],
      "name": "claimRewards",
      "outputs": [],
      "stateMutability": "nonpayable",
      "type": "function"
    },
    {
      "inputs": [
        {
          "internalType": "bytes32",
          "name": "role",
          "type": "bytes32"
        }
      ],
      "name": "getRoleAdmin",
      "outputs": [
        {
          "internalType": "bytes32",
          "name": "",
          "type": "bytes32"
        }
      ],
      "stateMutability": "view",
      "type": "function"
    },
    {
      "inputs": [
        {
          "internalType": "bytes32",
          "name": "role",
          "type": "bytes32"
        },
        {
          "internalType": "address",
          "name": "account",
          "type": "address"
        }
      ],
      "name": "grantRole",
      "outputs": [],
      "stateMutability": "nonpayable",
      "type": "function"
    },
    {
      "inputs": [
        {
          "internalType": "bytes32",
          "name": "role",
          "type": "bytes32"
        },
        {
          "internalType": "address",
          "name": "account",
          "type": "address"
        }
      ],
      "name": "hasRole",
      "outputs": [
        {
          "internalType": "bool",
          "name": "",
          "type": "bool"
        }
      ],
      "stateMutability": "view",
      "type": "function"
    },
    {
      "inputs": [
        {
          "internalType": "bytes32",
          "name": "role",
          "type": "bytes32"
        },
        {
          "internalType": "address",
          "name": "account",
          "type": "address"
        }
      ],
      "name": "renounceRole",
      "outputs": [],
      "stateMutability": "nonpayable",
      "type": "function"
    },
    {
      "inputs": [
        {
          "internalType": "bytes32",
          "name": "role",
          "type": "bytes32"
        },
        {
          "internalType": "address",
          "name": "account",
          "type": "address"
        }
      ],
      "name": "revokeRole",
      "outputs": [],
      "stateMutability": "nonpayable",
      "type": "function"
    },
    {
      "inputs": [],
      "name": "s_adminRate",
      "outputs": [
        {
          "internalType": "uint8",
          "name": "",
          "type": "uint8"
        }
      ],
      "stateMutability": "view",
      "type": "function"
    },
    {
      "inputs": [],
      "name": "s_adminTreasury",
      "outputs": [
        {
          "internalType": "uint256",
          "name": "",
          "type": "uint256"
        }
      ],
      "stateMutability": "view",
      "type": "function"
    },
    {
      "inputs": [],
      "name": "s_rewardTreasury",
      "outputs": [
        {
          "internalType": "uint256",
          "name": "",
          "type": "uint256"
        }
      ],
      "stateMutability": "view",
      "type": "function"
    },
    {
      "inputs": [
        {
          "internalType": "uint256",
          "name": "",
          "type": "uint256"
        }
      ],
      "name": "s_rewardsPerWinner",
      "outputs": [
        {
          "internalType": "uint256",
          "name": "",
          "type": "uint256"
        }
      ],
      "stateMutability": "view",
      "type": "function"
    },
    {
      "inputs": [
        {
          "internalType": "uint256",
          "name": "",
          "type": "uint256"
        }
      ],
      "name": "s_roundRewardsHistory",
      "outputs": [
        {
          "internalType": "uint256",
          "name": "",
          "type": "uint256"
        }
      ],
      "stateMutability": "view",
      "type": "function"
    },
    {
      "inputs": [
        {
          "internalType": "uint256",
          "name": "",
          "type": "uint256"
        }
      ],
      "name": "s_roundRewardsTracker",
      "outputs": [
        {
          "internalType": "uint256",
          "name": "",
          "type": "uint256"
        }
      ],
      "stateMutability": "view",
      "type": "function"
    },
    {
      "inputs": [
        {
          "internalType": "uint8",
          "name": "_rate",
          "type": "uint8"
        }
      ],
      "name": "setAdminRate",
      "outputs": [],
      "stateMutability": "nonpayable",
      "type": "function"
    },
    {
      "inputs": [
        {
          "internalType": "address",
          "name": "_lotteryBox",
          "type": "address"
        }
      ],
      "name": "setLotteryBox",
      "outputs": [],
      "stateMutability": "nonpayable",
      "type": "function"
    },
    {
      "inputs": [
        {
          "internalType": "bytes4",
          "name": "interfaceId",
          "type": "bytes4"
        }
      ],
      "name": "supportsInterface",
      "outputs": [
        {
          "internalType": "bool",
          "name": "",
          "type": "bool"
        }
      ],
      "stateMutability": "view",
      "type": "function"
    },
    {
      "inputs": [
        {
          "internalType": "uint256",
          "name": "_round",
          "type": "uint256"
        },
        {
          "internalType": "uint256",
          "name": "_totalWinnerNums",
          "type": "uint256"
        }
      ],
      "name": "updateEachUserClaim",
      "outputs": [],
      "stateMutability": "nonpayable",
      "type": "function"
    },
    {
      "inputs": [],
      "name": "updateTreasury",
      "outputs": [],
      "stateMutability": "payable",
      "type": "function"
    },
    {
      "inputs": [
        {
          "internalType": "address",
          "name": "_to",
          "type": "address"
        }
      ],
      "name": "withdraw",
      "outputs": [],
      "stateMutability": "nonpayable",
      "type": "function"
    }
  ],
  "bytecode": "0x608060405234801561001057600080fd5b5061001c6000336100bf565b60408051808201909152600681526529a2a72222a960d11b6020909101526100647fcf2b1209506b76f140fb1bc5fe66d6e42627c4b9703a951d65552f50f14c9ee7336100bf565b60408051808201909152600781526626a0a720a3a2a960c91b6020909101526100ad7faf290d8680820aad922855f39b306097b20e28774d6c1ad35a20325630c3a02c336100bf565b6003805460ff1916601417905561016b565b6100c982826100cd565b5050565b6000828152602081815260408083206001600160a01b038516845290915290205460ff166100c9576000828152602081815260408083206001600160a01b03851684529091529020805460ff191660011790556101273390565b6001600160a01b0316816001600160a01b0316837f2f8788117e7eff1d82e926ec794901d17c78024a50270940304540a733656f0d60405160405180910390a45050565b610ee08061017a6000396000f3fe6080604052600436106101355760003560e01c8063771d1b61116100ab578063a0a9e9ab1161006f578063a0a9e9ab1461035f578063a217fddf1461037f578063d547741f14610394578063eccfac71146103b4578063f77bc9e7146103c9578063faa72bd6146103f557600080fd5b8063771d1b61146102e157806391d14854146102f75780639a99b4f0146103175780639be83744146103375780639c7697871461035757600080fd5b806336568abe116100fd57806336568abe1461021c57806351cff8d91461023c578063522015141461025c5780636020af1314610289578063692e0ae2146102b65780637161b051146102cb57600080fd5b806301ffc9a71461013a5780630b000cfc1461016f578063248a9ca3146101915780632f2ff15d146101cf57806332aae28a146101ef575b600080fd5b34801561014657600080fd5b5061015a610155366004610cad565b610422565b60405190151581526020015b60405180910390f35b34801561017b57600080fd5b5061018f61018a366004610cd5565b610459565b005b34801561019d57600080fd5b506101c16101ac366004610c6a565b60009081526020819052604090206001015490565b604051908152602001610166565b3480156101db57600080fd5b5061018f6101ea366004610c82565b6104f1565b3480156101fb57600080fd5b506101c161020a366004610c6a565b60066020526000908152604090205481565b34801561022857600080fd5b5061018f610237366004610c82565b61051b565b34801561024857600080fd5b5061018f610257366004610c27565b61059e565b34801561026857600080fd5b506101c1610277366004610c6a565b60056020526000908152604090205481565b34801561029557600080fd5b506101c16102a4366004610c6a565b60046020526000908152604090205481565b3480156102c257600080fd5b506002546101c1565b3480156102d757600080fd5b506101c160025481565b3480156102ed57600080fd5b506101c160015481565b34801561030357600080fd5b5061015a610312366004610c82565b61061c565b34801561032357600080fd5b5061018f610332366004610c41565b610645565b34801561034357600080fd5b5061018f610352366004610c27565b61072d565b61018f6107ac565b34801561036b57600080fd5b5061018f61037a366004610cf6565b610839565b34801561038b57600080fd5b506101c1600081565b3480156103a057600080fd5b5061018f6103af366004610c82565b610899565b3480156103c057600080fd5b506001546101c1565b3480156103d557600080fd5b506003546103e39060ff1681565b60405160ff9091168152602001610166565b34801561040157600080fd5b506101c1610410366004610c6a565b60009081526004602052604090205490565b60006001600160e01b03198216637965db0b60e01b148061045357506301ffc9a760e01b6001600160e01b03198316145b92915050565b60408051808201909152600681526529a2a72222a960d11b602090910152600080516020610e8b83398151915261048f816108be565b60015460009081906006600586156104ba576104ab8784610dd7565b94506104b78786610df7565b93505b6104c48484610e16565b60015560009788526020908152604080892085905560048252808920949094555250909320929092555050565b60008281526020819052604090206001015461050c816108be565b61051683836108cb565b505050565b6001600160a01b03811633146105905760405162461bcd60e51b815260206004820152602f60248201527f416363657373436f6e74726f6c3a2063616e206f6e6c792072656e6f756e636560448201526e103937b632b9903337b91039b2b63360891b60648201526084015b60405180910390fd5b61059a828261094f565b5050565b60006105a9816108be565b6002546040516000916001600160a01b038516918381818185875af1925050503d80600081146105f5576040519150601f19603f3d011682016040523d82523d6000602084013e6105fa565b606091505b5050905080610516576040516338822c1360e11b815260040160405180910390fd5b6000918252602082815260408084206001600160a01b0393909316845291905290205460ff1690565b60408051808201909152600681526529a2a72222a960d11b602090910152600080516020610e8b83398151915261067b816108be565b6000828152600660209081526040808320546005909252909120548181106106b157600084815260056020526040902082820390555b6000856001600160a01b03168360405160006040518083038185875af1925050503d80600081146106fe576040519150601f19603f3d011682016040523d82523d6000602084013e610703565b606091505b505090508061072557604051631b7625d360e11b815260040160405180910390fd5b505050505050565b60408051808201909152600781526626a0a720a3a2a960c91b6020909101527faf290d8680820aad922855f39b306097b20e28774d6c1ad35a20325630c3a02c610776816108be565b60408051808201909152600681526529a2a72222a960d11b60209091015261059a600080516020610e8b833981519152836109b4565b60408051808201909152600681526529a2a72222a960d11b602090910152600080516020610e8b8339815191526107e2816108be565b60035434906000906064906107fa9060ff1684610df7565b6108049190610dd7565b9050806002546108149190610dbf565b6002556108218183610e16565b9150816001546108319190610dbf565b600155505050565b60408051808201909152600781526626a0a720a3a2a960c91b6020909101527faf290d8680820aad922855f39b306097b20e28774d6c1ad35a20325630c3a02c610882816108be565b506003805460ff191660ff92909216919091179055565b6000828152602081905260409020600101546108b4816108be565b610516838361094f565b6108c881336109be565b50565b6108d5828261061c565b61059a576000828152602081815260408083206001600160a01b03851684529091529020805460ff1916600117905561090b3390565b6001600160a01b0316816001600160a01b0316837f2f8788117e7eff1d82e926ec794901d17c78024a50270940304540a733656f0d60405160405180910390a45050565b610959828261061c565b1561059a576000828152602081815260408083206001600160a01b0385168085529252808320805460ff1916905551339285917ff6391f5c32d9c69d2a47ea670b442974b53935d1edc7fd64eb21e047a839171b9190a45050565b61059a82826108cb565b6109c8828261061c565b61059a576109e0816001600160a01b03166014610a22565b6109eb836020610a22565b6040516020016109fc929190610d17565b60408051601f198184030181529082905262461bcd60e51b825261058791600401610d8c565b60606000610a31836002610df7565b610a3c906002610dbf565b67ffffffffffffffff811115610a6257634e487b7160e01b600052604160045260246000fd5b6040519080825280601f01601f191660200182016040528015610a8c576020820181803683370190505b509050600360fc1b81600081518110610ab557634e487b7160e01b600052603260045260246000fd5b60200101906001600160f81b031916908160001a905350600f60fb1b81600181518110610af257634e487b7160e01b600052603260045260246000fd5b60200101906001600160f81b031916908160001a9053506000610b16846002610df7565b610b21906001610dbf565b90505b6001811115610bb5576f181899199a1a9b1b9c1cb0b131b232b360811b85600f1660108110610b6357634e487b7160e01b600052603260045260246000fd5b1a60f81b828281518110610b8757634e487b7160e01b600052603260045260246000fd5b60200101906001600160f81b031916908160001a90535060049490941c93610bae81610e5d565b9050610b24565b508315610c045760405162461bcd60e51b815260206004820181905260248201527f537472696e67733a20686578206c656e67746820696e73756666696369656e746044820152606401610587565b9392505050565b80356001600160a01b0381168114610c2257600080fd5b919050565b600060208284031215610c38578081fd5b610c0482610c0b565b60008060408385031215610c53578081fd5b610c5c83610c0b565b946020939093013593505050565b600060208284031215610c7b578081fd5b5035919050565b60008060408385031215610c94578182fd5b82359150610ca460208401610c0b565b90509250929050565b600060208284031215610cbe578081fd5b81356001600160e01b031981168114610c04578182fd5b60008060408385031215610ce7578182fd5b50508035926020909101359150565b600060208284031215610d07578081fd5b813560ff81168114610c04578182fd5b7f416363657373436f6e74726f6c3a206163636f756e7420000000000000000000815260008351610d4f816017850160208801610e2d565b7001034b99036b4b9b9b4b733903937b6329607d1b6017918401918201528351610d80816028840160208801610e2d565b01602801949350505050565b6020815260008251806020840152610dab816040850160208701610e2d565b601f01601f19169190910160400192915050565b60008219821115610dd257610dd2610e74565b500190565b600082610df257634e487b7160e01b81526012600452602481fd5b500490565b6000816000190483118215151615610e1157610e11610e74565b500290565b600082821015610e2857610e28610e74565b500390565b60005b83811015610e48578181015183820152602001610e30565b83811115610e57576000848401525b50505050565b600081610e6c57610e6c610e74565b506000190190565b634e487b7160e01b600052601160045260246000fdfecf2b1209506b76f140fb1bc5fe66d6e42627c4b9703a951d65552f50f14c9ee7a2646970667358221220cefa7d5125eb78cb94b3ae69a820c6e68c19bc3e9cd366734063eb524b93fb7964736f6c63430008040033",
  "linkReferences": {},
  "deployedLinkReferences": {}
}