{
  "_format": "hh-sol-artifact-1",
  "contractName": "VRFv2Consumer",
  "sourceName": "contracts/VRFv2Consumer.sol",
  "abi": [
    {
      "inputs": [
        {
          "internalType": "uint64",
          "name": "subscriptionId",
          "type": "uint64"
        }
      ],
      "stateMutability": "nonpayable",
      "type": "constructor"
    },
    {
      "inputs": [
        {
          "internalType": "address",
          "name": "have",
          "type": "address"
        },
        {
          "internalType": "address",
          "name": "want",
          "type": "address"
        }
      ],
      "name": "OnlyCoordinatorCanFulfill",
      "type": "error"
    },
    {
      "anonymous": false,
      "inputs": [
        {
          "indexed": true,
          "internalType": "bytes32",
          "name": "role",
          "type": "bytes32"
        },
        {
          "indexed": true,
          "internalType": "bytes32",
          "name": "previousAdminRole",
          "type": "bytes32"
        },
        {
          "indexed": true,
          "internalType": "bytes32",
          "name": "newAdminRole",
          "type": "bytes32"
        }
      ],
      "name": "RoleAdminChanged",
      "type": "event"
    },
    {
      "anonymous": false,
      "inputs": [
        {
          "indexed": true,
          "internalType": "bytes32",
          "name": "role",
          "type": "bytes32"
        },
        {
          "indexed": true,
          "internalType": "address",
          "name": "account",
          "type": "address"
        },
        {
          "indexed": true,
          "internalType": "address",
          "name": "sender",
          "type": "address"
        }
      ],
      "name": "RoleGranted",
      "type": "event"
    },
    {
      "anonymous": false,
      "inputs": [
        {
          "indexed": true,
          "internalType": "bytes32",
          "name": "role",
          "type": "bytes32"
        },
        {
          "indexed": true,
          "internalType": "address",
          "name": "account",
          "type": "address"
        },
        {
          "indexed": true,
          "internalType": "address",
          "name": "sender",
          "type": "address"
        }
      ],
      "name": "RoleRevoked",
      "type": "event"
    },
    {
      "inputs": [],
      "name": "DEFAULT_ADMIN_ROLE",
      "outputs": [
        {
          "internalType": "bytes32",
          "name": "",
          "type": "bytes32"
        }
      ],
      "stateMutability": "view",
      "type": "function"
    },
    {
      "inputs": [
        {
          "internalType": "bytes32",
          "name": "role",
          "type": "bytes32"
        }
      ],
      "name": "getRoleAdmin",
      "outputs": [
        {
          "internalType": "bytes32",
          "name": "",
          "type": "bytes32"
        }
      ],
      "stateMutability": "view",
      "type": "function"
    },
    {
      "inputs": [
        {
          "internalType": "bytes32",
          "name": "role",
          "type": "bytes32"
        },
        {
          "internalType": "address",
          "name": "account",
          "type": "address"
        }
      ],
      "name": "grantRole",
      "outputs": [],
      "stateMutability": "nonpayable",
      "type": "function"
    },
    {
      "inputs": [
        {
          "internalType": "bytes32",
          "name": "role",
          "type": "bytes32"
        },
        {
          "internalType": "address",
          "name": "account",
          "type": "address"
        }
      ],
      "name": "hasRole",
      "outputs": [
        {
          "internalType": "bool",
          "name": "",
          "type": "bool"
        }
      ],
      "stateMutability": "view",
      "type": "function"
    },
    {
      "inputs": [
        {
          "internalType": "uint256",
          "name": "requestId",
          "type": "uint256"
        },
        {
          "internalType": "uint256[]",
          "name": "randomWords",
          "type": "uint256[]"
        }
      ],
      "name": "rawFulfillRandomWords",
      "outputs": [],
      "stateMutability": "nonpayable",
      "type": "function"
    },
    {
      "inputs": [
        {
          "internalType": "bytes32",
          "name": "role",
          "type": "bytes32"
        },
        {
          "internalType": "address",
          "name": "account",
          "type": "address"
        }
      ],
      "name": "renounceRole",
      "outputs": [],
      "stateMutability": "nonpayable",
      "type": "function"
    },
    {
      "inputs": [],
      "name": "requestRandomWords",
      "outputs": [],
      "stateMutability": "nonpayable",
      "type": "function"
    },
    {
      "inputs": [
        {
          "internalType": "bytes32",
          "name": "role",
          "type": "bytes32"
        },
        {
          "internalType": "address",
          "name": "account",
          "type": "address"
        }
      ],
      "name": "revokeRole",
      "outputs": [],
      "stateMutability": "nonpayable",
      "type": "function"
    },
    {
      "inputs": [
        {
          "internalType": "uint256",
          "name": "",
          "type": "uint256"
        }
      ],
      "name": "s_randomWords",
      "outputs": [
        {
          "internalType": "uint256",
          "name": "",
          "type": "uint256"
        }
      ],
      "stateMutability": "view",
      "type": "function"
    },
    {
      "inputs": [],
      "name": "s_requestId",
      "outputs": [
        {
          "internalType": "uint256",
          "name": "",
          "type": "uint256"
        }
      ],
      "stateMutability": "view",
      "type": "function"
    },
    {
      "inputs": [
        {
          "internalType": "bytes4",
          "name": "interfaceId",
          "type": "bytes4"
        }
      ],
      "name": "supportsInterface",
      "outputs": [
        {
          "internalType": "bool",
          "name": "",
          "type": "bool"
        }
      ],
      "stateMutability": "view",
      "type": "function"
    }
  ],
  "bytecode": "0x60a0604052600280546001600160a01b031916732ca8e0c643bde4c2e08ab1fa0da3401adad7734d1790557f79d3d8832d904592c0bf9818b621522c988bb8b0c05cdc3b15aea1b6e8db0c15600355600480546c0f4240000000010003000186a06001600160701b031990911617905534801561007b57600080fd5b50604051610e4b380380610e4b83398101604081905261009a916101e7565b600254606081901b6001600160601b031916608052600180546001600160a01b039092166001600160e01b031990921691909117600160a01b6001600160401b038416021790556100ec60003361013b565b60408051808201909152600781526626a0a720a3a2a960c91b6020909101526101357faf290d8680820aad922855f39b306097b20e28774d6c1ad35a20325630c3a02c3361013b565b50610215565b6101458282610149565b5050565b6000828152602081815260408083206001600160a01b038516845290915290205460ff16610145576000828152602081815260408083206001600160a01b03851684529091529020805460ff191660011790556101a33390565b6001600160a01b0316816001600160a01b0316837f2f8788117e7eff1d82e926ec794901d17c78024a50270940304540a733656f0d60405160405180910390a45050565b6000602082840312156101f8578081fd5b81516001600160401b038116811461020e578182fd5b9392505050565b60805160601c610c1161023a600039600081816101d601526102180152610c116000f3fe608060405234801561001057600080fd5b50600436106100a95760003560e01c806391d148541161007157806391d1485414610142578063a217fddf14610155578063d547741f1461015d578063e0c8628914610170578063e89e106a14610178578063f6eaffc81461018157600080fd5b806301ffc9a7146100ae5780631fe543e3146100d6578063248a9ca3146100eb5780632f2ff15d1461011c57806336568abe1461012f575b600080fd5b6100c16100bc36600461094a565b610194565b60405190151581526020015b60405180910390f35b6100e96100e436600461098a565b6101cb565b005b61010e6100f93660046108f8565b60009081526020819052604090206001015490565b6040519081526020016100cd565b6100e961012a366004610910565b610258565b6100e961013d366004610910565b610282565b6100c1610150366004610910565b6102fc565b61010e600081565b6100e961016b366004610910565b610325565b6100e961034a565b61010e60065481565b61010e61018f3660046108f8565b610465565b60006001600160e01b03198216637965db0b60e01b14806101c557506301ffc9a760e01b6001600160e01b03198316145b92915050565b336001600160a01b037f0000000000000000000000000000000000000000000000000000000000000000161461024a5760405163073e64fd60e21b81523360048201526001600160a01b037f00000000000000000000000000000000000000000000000000000000000000001660248201526044015b60405180910390fd5b6102548282610486565b5050565b60008281526020819052604090206001015461027381610555565b61027d8383610562565b505050565b6001600160a01b03811633146102f25760405162461bcd60e51b815260206004820152602f60248201527f416363657373436f6e74726f6c3a2063616e206f6e6c792072656e6f756e636560448201526e103937b632b9903337b91039b2b63360891b6064820152608401610241565b61025482826105e6565b6000918252602082815260408084206001600160a01b0393909316845291905290205460ff1690565b60008281526020819052604090206001015461034081610555565b61027d83836105e6565b60408051808201909152600781526626a0a720a3a2a960c91b6020909101527faf290d8680820aad922855f39b306097b20e28774d6c1ad35a20325630c3a02c61039381610555565b600154600354600480546040516305d3b1d360e41b815291820192909252600160a01b830467ffffffffffffffff166024820152640100000000820461ffff16604482015263ffffffff8083166064830152660100000000000090920490911660848201526001600160a01b0390911690635d3b1d309060a401602060405180830381600087803b15801561042757600080fd5b505af115801561043b573d6000803e3d6000fd5b505050506040513d601f19601f8201168201806040525081019061045f9190610972565b60065550565b6005818154811061047557600080fd5b600091825260209091200154905081565b6004548151600160501b90910463ffffffff16908190819084906000906104bd57634e487b7160e01b600052603260045260246000fd5b60200260200101516104cf9190610b16565b6104d99190610b36565b826000815181106104fa57634e487b7160e01b600052603260045260246000fd5b602002602001015161050c9190610b55565b8260008151811061052d57634e487b7160e01b600052603260045260246000fd5b602002602001018181525050816005908051906020019061054f929190610898565b50505050565b61055f813361064b565b50565b61056c82826102fc565b610254576000828152602081815260408083206001600160a01b03851684529091529020805460ff191660011790556105a23390565b6001600160a01b0316816001600160a01b0316837f2f8788117e7eff1d82e926ec794901d17c78024a50270940304540a733656f0d60405160405180910390a45050565b6105f082826102fc565b15610254576000828152602081815260408083206001600160a01b0385168085529252808320805460ff1916905551339285917ff6391f5c32d9c69d2a47ea670b442974b53935d1edc7fd64eb21e047a839171b9190a45050565b61065582826102fc565b6102545761066d816001600160a01b031660146106af565b6106788360206106af565b604051602001610689929190610a56565b60408051601f198184030181529082905262461bcd60e51b825261024191600401610acb565b606060006106be836002610b36565b6106c9906002610afe565b67ffffffffffffffff8111156106ef57634e487b7160e01b600052604160045260246000fd5b6040519080825280601f01601f191660200182016040528015610719576020820181803683370190505b509050600360fc1b8160008151811061074257634e487b7160e01b600052603260045260246000fd5b60200101906001600160f81b031916908160001a905350600f60fb1b8160018151811061077f57634e487b7160e01b600052603260045260246000fd5b60200101906001600160f81b031916908160001a90535060006107a3846002610b36565b6107ae906001610afe565b90505b6001811115610842576f181899199a1a9b1b9c1cb0b131b232b360811b85600f16601081106107f057634e487b7160e01b600052603260045260246000fd5b1a60f81b82828151811061081457634e487b7160e01b600052603260045260246000fd5b60200101906001600160f81b031916908160001a90535060049490941c9361083b81610b98565b90506107b1565b5083156108915760405162461bcd60e51b815260206004820181905260248201527f537472696e67733a20686578206c656e67746820696e73756666696369656e746044820152606401610241565b9392505050565b8280548282559060005260206000209081019282156108d3579160200282015b828111156108d35782518255916020019190600101906108b8565b506108df9291506108e3565b5090565b5b808211156108df57600081556001016108e4565b600060208284031215610909578081fd5b5035919050565b60008060408385031215610922578081fd5b8235915060208301356001600160a01b038116811461093f578182fd5b809150509250929050565b60006020828403121561095b578081fd5b81356001600160e01b031981168114610891578182fd5b600060208284031215610983578081fd5b5051919050565b6000806040838503121561099c578182fd5b8235915060208084013567ffffffffffffffff808211156109bb578384fd5b818601915086601f8301126109ce578384fd5b8135818111156109e0576109e0610bc5565b8060051b604051601f19603f83011681018181108582111715610a0557610a05610bc5565b604052828152858101935084860182860187018b1015610a23578788fd5b8795505b83861015610a45578035855260019590950194938601938601610a27565b508096505050505050509250929050565b7f416363657373436f6e74726f6c3a206163636f756e7420000000000000000000815260008351610a8e816017850160208801610b6c565b7001034b99036b4b9b9b4b733903937b6329607d1b6017918401918201528351610abf816028840160208801610b6c565b01602801949350505050565b6020815260008251806020840152610aea816040850160208701610b6c565b601f01601f19169190910160400192915050565b60008219821115610b1157610b11610baf565b500190565b600082610b3157634e487b7160e01b81526012600452602481fd5b500490565b6000816000190483118215151615610b5057610b50610baf565b500290565b600082821015610b6757610b67610baf565b500390565b60005b83811015610b87578181015183820152602001610b6f565b8381111561054f5750506000910152565b600081610ba757610ba7610baf565b506000190190565b634e487b7160e01b600052601160045260246000fd5b634e487b7160e01b600052604160045260246000fdfea2646970667358221220cdb16d334b387f5d40dd5f46cd9875173c4b348ef598590e9826567e91df4f7564736f6c63430008040033",
  "linkReferences": {},
  "deployedLinkReferences": {}
}